{
  "_format": "hh-sol-artifact-1",
  "contractName": "ticketsDeploy",
  "sourceName": "contracts/ticketsDeploy.sol",
  "abi": [
    {
      "anonymous": false,
      "inputs": [
        {
          "indexed": false,
          "internalType": "address",
          "name": "recipent",
          "type": "address"
        },
        {
          "indexed": false,
          "internalType": "uint256",
          "name": "ticketID",
          "type": "uint256"
        }
      ],
      "name": "AddTicket",
      "type": "event"
    },
    {
      "inputs": [
        {
          "internalType": "string",
          "name": "contractInfo",
          "type": "string"
        },
        {
          "internalType": "address",
          "name": "wallet",
          "type": "address"
        },
        {
          "internalType": "uint256",
          "name": "numberOfTokens",
          "type": "uint256"
        }
      ],
      "name": "addTicket",
      "outputs": [],
      "stateMutability": "nonpayable",
      "type": "function"
    },
    {
      "inputs": [],
      "name": "getMyTickets",
      "outputs": [
        {
          "components": [
            {
              "internalType": "string",
              "name": "explanation",
              "type": "string"
            },
            {
              "internalType": "address",
              "name": "walletAddress",
              "type": "address"
            },
            {
              "internalType": "uint256",
              "name": "numberOfTokens",
              "type": "uint256"
            }
          ],
          "internalType": "struct ticketsDeploy.Contracts[]",
          "name": "",
          "type": "tuple[]"
        }
      ],
      "stateMutability": "view",
      "type": "function"
    },
    {
      "inputs": [
        {
          "internalType": "address",
          "name": "_address",
          "type": "address"
        }
      ],
      "name": "setTokenAddress",
      "outputs": [],
      "stateMutability": "nonpayable",
      "type": "function"
    },
    {
      "inputs": [
        {
          "internalType": "uint256",
          "name": "",
          "type": "uint256"
        }
      ],
      "name": "ticketsToOwner",
      "outputs": [
        {
          "internalType": "address",
          "name": "",
          "type": "address"
        }
      ],
      "stateMutability": "view",
      "type": "function"
    },
    {
      "inputs": [],
      "name": "tokenAddress",
      "outputs": [
        {
          "internalType": "address",
          "name": "",
          "type": "address"
        }
      ],
      "stateMutability": "view",
      "type": "function"
    }
  ],
  "bytecode": "0x608060405234801561001057600080fd5b50610c97806100206000396000f3fe608060405234801561001057600080fd5b50600436106100575760003560e01c806326a4e8d21461005c5780636a0ad16b146100785780636f6185a7146100945780639d76ea58146100c4578063e1d10d85146100e2575b600080fd5b61007660048036038101906100719190610774565b610100565b005b610092600480360381019061008d919061083c565b610143565b005b6100ae60048036038101906100a991906108b0565b6102ef565b6040516100bb91906108ec565b60405180910390f35b6100cc610322565b6040516100d991906108ec565b60405180910390f35b6100ea610346565b6040516100f79190610ad0565b60405180910390f35b806000806101000a81548173ffffffffffffffffffffffffffffffffffffffff021916908373ffffffffffffffffffffffffffffffffffffffff16021790555050565b600060018054905090506001604051806060016040528087878080601f016020809104026020016040519081016040528093929190818152602001838380828437600081840152601f19601f8201169050808301925050505050505081526020018573ffffffffffffffffffffffffffffffffffffffff1681526020018481525090806001815401808255809150506001900390600052602060002090600302016000909190919091506000820151816000019080519060200190610209929190610632565b5060208201518160010160006101000a81548173ffffffffffffffffffffffffffffffffffffffff021916908373ffffffffffffffffffffffffffffffffffffffff160217905550604082015181600201555050336002600083815260200190815260200160002060006101000a81548173ffffffffffffffffffffffffffffffffffffffff021916908373ffffffffffffffffffffffffffffffffffffffff1602179055507fe4224fac76e68ee2fe2a87cc73a563626ea919ce93b7f5963a8057baf441abb033826040516102e0929190610b01565b60405180910390a15050505050565b60026020528060005260406000206000915054906101000a900473ffffffffffffffffffffffffffffffffffffffff1681565b60008054906101000a900473ffffffffffffffffffffffffffffffffffffffff1681565b6060600060018054905067ffffffffffffffff81111561036957610368610b2a565b5b6040519080825280602002602001820160405280156103a257816020015b61038f6106b8565b8152602001906001900390816103875790505b5090506000805b60018054905081101561057a573373ffffffffffffffffffffffffffffffffffffffff166002600084815260200190815260200160002060009054906101000a900473ffffffffffffffffffffffffffffffffffffffff1673ffffffffffffffffffffffffffffffffffffffff161415610569576001818154811061043157610430610b59565b5b906000526020600020906003020160405180606001604052908160008201805461045a90610bb7565b80601f016020809104026020016040519081016040528092919081815260200182805461048690610bb7565b80156104d35780601f106104a8576101008083540402835291602001916104d3565b820191906000526020600020905b8154815290600101906020018083116104b657829003601f168201915b505050505081526020016001820160009054906101000a900473ffffffffffffffffffffffffffffffffffffffff1673ffffffffffffffffffffffffffffffffffffffff1673ffffffffffffffffffffffffffffffffffffffff16815260200160028201548152505083838151811061054f5761054e610b59565b5b6020026020010181905250818061056590610c18565b9250505b8061057390610c18565b90506103a9565b5060008167ffffffffffffffff81111561059757610596610b2a565b5b6040519080825280602002602001820160405280156105d057816020015b6105bd6106b8565b8152602001906001900390816105b55790505b50905060005b82811015610628578381815181106105f1576105f0610b59565b5b602002602001015182828151811061060c5761060b610b59565b5b60200260200101819052508061062190610c18565b90506105d6565b5080935050505090565b82805461063e90610bb7565b90600052602060002090601f01602090048101928261066057600085556106a7565b82601f1061067957805160ff19168380011785556106a7565b828001600101855582156106a7579182015b828111156106a657825182559160200191906001019061068b565b5b5090506106b491906106ef565b5090565b604051806060016040528060608152602001600073ffffffffffffffffffffffffffffffffffffffff168152602001600081525090565b5b808211156107085760008160009055506001016106f0565b5090565b600080fd5b600080fd5b600073ffffffffffffffffffffffffffffffffffffffff82169050919050565b600061074182610716565b9050919050565b61075181610736565b811461075c57600080fd5b50565b60008135905061076e81610748565b92915050565b60006020828403121561078a5761078961070c565b5b60006107988482850161075f565b91505092915050565b600080fd5b600080fd5b600080fd5b60008083601f8401126107c6576107c56107a1565b5b8235905067ffffffffffffffff8111156107e3576107e26107a6565b5b6020830191508360018202830111156107ff576107fe6107ab565b5b9250929050565b6000819050919050565b61081981610806565b811461082457600080fd5b50565b60008135905061083681610810565b92915050565b600080600080606085870312156108565761085561070c565b5b600085013567ffffffffffffffff81111561087457610873610711565b5b610880878288016107b0565b945094505060206108938782880161075f565b92505060406108a487828801610827565b91505092959194509250565b6000602082840312156108c6576108c561070c565b5b60006108d484828501610827565b91505092915050565b6108e681610736565b82525050565b600060208201905061090160008301846108dd565b92915050565b600081519050919050565b600082825260208201905092915050565b6000819050602082019050919050565b600081519050919050565b600082825260208201905092915050565b60005b8381101561096d578082015181840152602081019050610952565b8381111561097c576000848401525b50505050565b6000601f19601f8301169050919050565b600061099e82610933565b6109a8818561093e565b93506109b881856020860161094f565b6109c181610982565b840191505092915050565b6109d581610736565b82525050565b6109e481610806565b82525050565b60006060830160008301518482036000860152610a078282610993565b9150506020830151610a1c60208601826109cc565b506040830151610a2f60408601826109db565b508091505092915050565b6000610a4683836109ea565b905092915050565b6000602082019050919050565b6000610a6682610907565b610a708185610912565b935083602082028501610a8285610923565b8060005b85811015610abe5784840389528151610a9f8582610a3a565b9450610aaa83610a4e565b925060208a01995050600181019050610a86565b50829750879550505050505092915050565b60006020820190508181036000830152610aea8184610a5b565b905092915050565b610afb81610806565b82525050565b6000604082019050610b1660008301856108dd565b610b236020830184610af2565b9392505050565b7f4e487b7100000000000000000000000000000000000000000000000000000000600052604160045260246000fd5b7f4e487b7100000000000000000000000000000000000000000000000000000000600052603260045260246000fd5b7f4e487b7100000000000000000000000000000000000000000000000000000000600052602260045260246000fd5b60006002820490506001821680610bcf57607f821691505b60208210811415610be357610be2610b88565b5b50919050565b7f4e487b7100000000000000000000000000000000000000000000000000000000600052601160045260246000fd5b6000610c2382610806565b91507fffffffffffffffffffffffffffffffffffffffffffffffffffffffffffffffff821415610c5657610c55610be9565b5b60018201905091905056fea2646970667358221220975ea8cf5279338adb588a7a2db363ef18867983d5db76c1dce9904637975ee364736f6c63430008090033",
  "linkReferences": {},
  "deployedLinkReferences": {}
}