{
  "_format": "hh-sol-artifact-1",
  "contractName": "ticketsDeploy",
  "sourceName": "contracts/ticketsDeploy.sol",
  "abi": [
    {
      "anonymous": false,
      "inputs": [
        {
          "indexed": false,
          "internalType": "address",
          "name": "recipent",
          "type": "address"
        },
        {
          "indexed": false,
          "internalType": "uint256",
          "name": "ticketID",
          "type": "uint256"
        }
      ],
      "name": "AddTicket",
      "type": "event"
    },
    {
      "inputs": [
        {
          "internalType": "string",
          "name": "contractInfo",
          "type": "string"
        },
        {
          "internalType": "address",
          "name": "wallet",
          "type": "address"
        },
        {
          "internalType": "uint256",
          "name": "numberOfTokens",
          "type": "uint256"
        }
      ],
      "name": "addTicket",
      "outputs": [],
      "stateMutability": "nonpayable",
      "type": "function"
    },
    {
      "inputs": [],
      "name": "getMyTickets",
      "outputs": [
        {
          "components": [
            {
              "internalType": "string",
              "name": "explanation",
              "type": "string"
            },
            {
              "internalType": "address",
              "name": "walletAddress",
              "type": "address"
            },
            {
              "internalType": "uint256",
              "name": "numberOfTokens",
              "type": "uint256"
            }
          ],
          "internalType": "struct ticketsDeploy.Contracts[]",
          "name": "",
          "type": "tuple[]"
        }
      ],
      "stateMutability": "view",
      "type": "function"
    },
    {
      "inputs": [
        {
          "internalType": "uint256",
          "name": "",
          "type": "uint256"
        }
      ],
      "name": "ticketsToOwner",
      "outputs": [
        {
          "internalType": "address",
          "name": "",
          "type": "address"
        }
      ],
      "stateMutability": "view",
      "type": "function"
    }
  ],
  "bytecode": "0x608060405234801561001057600080fd5b50610bb1806100206000396000f3fe608060405234801561001057600080fd5b50600436106100415760003560e01c80636a0ad16b146100465780636f6185a714610062578063e1d10d8514610092575b600080fd5b610060600480360381019061005b9190610756565b6100b0565b005b61007c600480360381019061007791906107ca565b61025b565b6040516100899190610806565b60405180910390f35b61009a61028e565b6040516100a791906109ea565b60405180910390f35b6000808054905090506000604051806060016040528087878080601f016020809104026020016040519081016040528093929190818152602001838380828437600081840152601f19601f8201169050808301925050505050505081526020018573ffffffffffffffffffffffffffffffffffffffff1681526020018481525090806001815401808255809150506001900390600052602060002090600302016000909190919091506000820151816000019080519060200190610175929190610579565b5060208201518160010160006101000a81548173ffffffffffffffffffffffffffffffffffffffff021916908373ffffffffffffffffffffffffffffffffffffffff160217905550604082015181600201555050336001600083815260200190815260200160002060006101000a81548173ffffffffffffffffffffffffffffffffffffffff021916908373ffffffffffffffffffffffffffffffffffffffff1602179055507fe4224fac76e68ee2fe2a87cc73a563626ea919ce93b7f5963a8057baf441abb0338260405161024c929190610a1b565b60405180910390a15050505050565b60016020528060005260406000206000915054906101000a900473ffffffffffffffffffffffffffffffffffffffff1681565b60606000808054905067ffffffffffffffff8111156102b0576102af610a44565b5b6040519080825280602002602001820160405280156102e957816020015b6102d66105ff565b8152602001906001900390816102ce5790505b5090506000805b6000805490508110156104c1573373ffffffffffffffffffffffffffffffffffffffff166001600084815260200190815260200160002060009054906101000a900473ffffffffffffffffffffffffffffffffffffffff1673ffffffffffffffffffffffffffffffffffffffff1614156104b0576000818154811061037857610377610a73565b5b90600052602060002090600302016040518060600160405290816000820180546103a190610ad1565b80601f01602080910402602001604051908101604052809291908181526020018280546103cd90610ad1565b801561041a5780601f106103ef5761010080835404028352916020019161041a565b820191906000526020600020905b8154815290600101906020018083116103fd57829003601f168201915b505050505081526020016001820160009054906101000a900473ffffffffffffffffffffffffffffffffffffffff1673ffffffffffffffffffffffffffffffffffffffff1673ffffffffffffffffffffffffffffffffffffffff16815260200160028201548152505083838151811061049657610495610a73565b5b602002602001018190525081806104ac90610b32565b9250505b806104ba90610b32565b90506102f0565b5060008167ffffffffffffffff8111156104de576104dd610a44565b5b60405190808252806020026020018201604052801561051757816020015b6105046105ff565b8152602001906001900390816104fc5790505b50905060005b8281101561056f5783818151811061053857610537610a73565b5b602002602001015182828151811061055357610552610a73565b5b60200260200101819052508061056890610b32565b905061051d565b5080935050505090565b82805461058590610ad1565b90600052602060002090601f0160209004810192826105a757600085556105ee565b82601f106105c057805160ff19168380011785556105ee565b828001600101855582156105ee579182015b828111156105ed5782518255916020019190600101906105d2565b5b5090506105fb9190610636565b5090565b604051806060016040528060608152602001600073ffffffffffffffffffffffffffffffffffffffff168152602001600081525090565b5b8082111561064f576000816000905550600101610637565b5090565b600080fd5b600080fd5b600080fd5b600080fd5b600080fd5b60008083601f8401126106825761068161065d565b5b8235905067ffffffffffffffff81111561069f5761069e610662565b5b6020830191508360018202830111156106bb576106ba610667565b5b9250929050565b600073ffffffffffffffffffffffffffffffffffffffff82169050919050565b60006106ed826106c2565b9050919050565b6106fd816106e2565b811461070857600080fd5b50565b60008135905061071a816106f4565b92915050565b6000819050919050565b61073381610720565b811461073e57600080fd5b50565b6000813590506107508161072a565b92915050565b600080600080606085870312156107705761076f610653565b5b600085013567ffffffffffffffff81111561078e5761078d610658565b5b61079a8782880161066c565b945094505060206107ad8782880161070b565b92505060406107be87828801610741565b91505092959194509250565b6000602082840312156107e0576107df610653565b5b60006107ee84828501610741565b91505092915050565b610800816106e2565b82525050565b600060208201905061081b60008301846107f7565b92915050565b600081519050919050565b600082825260208201905092915050565b6000819050602082019050919050565b600081519050919050565b600082825260208201905092915050565b60005b8381101561088757808201518184015260208101905061086c565b83811115610896576000848401525b50505050565b6000601f19601f8301169050919050565b60006108b88261084d565b6108c28185610858565b93506108d2818560208601610869565b6108db8161089c565b840191505092915050565b6108ef816106e2565b82525050565b6108fe81610720565b82525050565b6000606083016000830151848203600086015261092182826108ad565b915050602083015161093660208601826108e6565b50604083015161094960408601826108f5565b508091505092915050565b60006109608383610904565b905092915050565b6000602082019050919050565b600061098082610821565b61098a818561082c565b93508360208202850161099c8561083d565b8060005b858110156109d857848403895281516109b98582610954565b94506109c483610968565b925060208a019950506001810190506109a0565b50829750879550505050505092915050565b60006020820190508181036000830152610a048184610975565b905092915050565b610a1581610720565b82525050565b6000604082019050610a3060008301856107f7565b610a3d6020830184610a0c565b9392505050565b7f4e487b7100000000000000000000000000000000000000000000000000000000600052604160045260246000fd5b7f4e487b7100000000000000000000000000000000000000000000000000000000600052603260045260246000fd5b7f4e487b7100000000000000000000000000000000000000000000000000000000600052602260045260246000fd5b60006002820490506001821680610ae957607f821691505b60208210811415610afd57610afc610aa2565b5b50919050565b7f4e487b7100000000000000000000000000000000000000000000000000000000600052601160045260246000fd5b6000610b3d82610720565b91507fffffffffffffffffffffffffffffffffffffffffffffffffffffffffffffffff821415610b7057610b6f610b03565b5b60018201905091905056fea2646970667358221220aad49f96a8dd34ce7fc96768aa9ed5d39a6d8362b01cc60ed4d11be59780cb6a64736f6c63430008090033",
  "linkReferences": {},
  "deployedLinkReferences": {}
}