{
  "_format": "hh-sol-artifact-1",
  "contractName": "ticketsDeploy",
  "sourceName": "contracts/ticketsDeploy.sol",
  "abi": [
    {
      "inputs": [],
      "stateMutability": "nonpayable",
      "type": "constructor"
    },
    {
      "anonymous": false,
      "inputs": [
        {
          "indexed": false,
          "internalType": "address",
          "name": "recipent",
          "type": "address"
        },
        {
          "indexed": false,
          "internalType": "uint256",
          "name": "ticketID",
          "type": "uint256"
        }
      ],
      "name": "AddTicket",
      "type": "event"
    },
    {
      "anonymous": false,
      "inputs": [
        {
          "indexed": false,
          "internalType": "address",
          "name": "",
          "type": "address"
        },
        {
          "indexed": false,
          "internalType": "uint256",
          "name": "",
          "type": "uint256"
        }
      ],
      "name": "Received",
      "type": "event"
    },
    {
      "anonymous": false,
      "inputs": [
        {
          "indexed": false,
          "internalType": "address",
          "name": "from",
          "type": "address"
        },
        {
          "indexed": false,
          "internalType": "address",
          "name": "to",
          "type": "address"
        },
        {
          "indexed": false,
          "internalType": "uint256",
          "name": "amount",
          "type": "uint256"
        }
      ],
      "name": "TransferSent",
      "type": "event"
    },
    {
      "inputs": [
        {
          "internalType": "string",
          "name": "contractInfo",
          "type": "string"
        },
        {
          "internalType": "address",
          "name": "wallet",
          "type": "address"
        },
        {
          "internalType": "uint256",
          "name": "numberOfTokens",
          "type": "uint256"
        }
      ],
      "name": "addTicket",
      "outputs": [],
      "stateMutability": "payable",
      "type": "function"
    },
    {
      "inputs": [
        {
          "internalType": "uint256",
          "name": "ticketID",
          "type": "uint256"
        },
        {
          "internalType": "bool",
          "name": "decision",
          "type": "bool"
        },
        {
          "internalType": "string",
          "name": "_explanation",
          "type": "string"
        }
      ],
      "name": "approve",
      "outputs": [],
      "stateMutability": "nonpayable",
      "type": "function"
    },
    {
      "inputs": [],
      "name": "getMyTickets",
      "outputs": [
        {
          "components": [
            {
              "internalType": "string",
              "name": "explanation",
              "type": "string"
            },
            {
              "internalType": "address",
              "name": "walletAddress",
              "type": "address"
            },
            {
              "internalType": "uint256",
              "name": "numberOfTokens",
              "type": "uint256"
            },
            {
              "internalType": "bool",
              "name": "approved",
              "type": "bool"
            },
            {
              "internalType": "string",
              "name": "explanationIfNot",
              "type": "string"
            },
            {
              "internalType": "uint256",
              "name": "id",
              "type": "uint256"
            }
          ],
          "internalType": "struct ticketsDeploy.Ticket[]",
          "name": "",
          "type": "tuple[]"
        }
      ],
      "stateMutability": "view",
      "type": "function"
    },
    {
      "inputs": [
        {
          "internalType": "address",
          "name": "wallet",
          "type": "address"
        },
        {
          "internalType": "uint256",
          "name": "amount",
          "type": "uint256"
        }
      ],
      "name": "sendToken",
      "outputs": [],
      "stateMutability": "payable",
      "type": "function"
    },
    {
      "inputs": [
        {
          "internalType": "address",
          "name": "_address",
          "type": "address"
        }
      ],
      "name": "setTokenAddress",
      "outputs": [],
      "stateMutability": "nonpayable",
      "type": "function"
    },
    {
      "inputs": [
        {
          "internalType": "uint256",
          "name": "",
          "type": "uint256"
        }
      ],
      "name": "ticketsToOwner",
      "outputs": [
        {
          "internalType": "address",
          "name": "",
          "type": "address"
        }
      ],
      "stateMutability": "view",
      "type": "function"
    },
    {
      "inputs": [],
      "name": "tokenAddress",
      "outputs": [
        {
          "internalType": "address",
          "name": "",
          "type": "address"
        }
      ],
      "stateMutability": "view",
      "type": "function"
    },
    {
      "stateMutability": "payable",
      "type": "receive"
    }
  ],
  "bytecode": "0x608060405234801561001057600080fd5b5033600260006101000a81548173ffffffffffffffffffffffffffffffffffffffff021916908373ffffffffffffffffffffffffffffffffffffffff160217905550611510806100616000396000f3fe6080604052600436106100745760003560e01c80636f6185a71161004e5780636f6185a71461011a5780639d76ea5814610157578063a4ef4f0614610182578063e1d10d85146101ab576100b4565b806326a4e8d2146100b9578063412664ae146100e25780636a0ad16b146100fe576100b4565b366100b4577f88a5966d370b9919b20f3e2c13ff65706f196a4e32cc2c12bf57088f8852587433346040516100aa929190610c31565b60405180910390a1005b600080fd5b3480156100c557600080fd5b506100e060048036038101906100db9190610c9a565b6101d6565b005b6100fc60048036038101906100f79190610cf3565b610219565b005b61011860048036038101906101139190610d98565b61044d565b005b34801561012657600080fd5b50610141600480360381019061013c9190610e0c565b610664565b60405161014e9190610e39565b60405180910390f35b34801561016357600080fd5b5061016c610697565b6040516101799190610e39565b60405180910390f35b34801561018e57600080fd5b506101a960048036038101906101a49190610fcd565b6106bb565b005b3480156101b757600080fd5b506101c0610743565b6040516101cd9190611243565b60405180910390f35b806000806101000a81548173ffffffffffffffffffffffffffffffffffffffff021916908373ffffffffffffffffffffffffffffffffffffffff16021790555050565b600260009054906101000a900473ffffffffffffffffffffffffffffffffffffffff1673ffffffffffffffffffffffffffffffffffffffff163373ffffffffffffffffffffffffffffffffffffffff16146102a9576040517f08c379a00000000000000000000000000000000000000000000000000000000081526004016102a0906112c2565b60405180910390fd5b60008060009054906101000a900473ffffffffffffffffffffffffffffffffffffffff1673ffffffffffffffffffffffffffffffffffffffff166370a08231306040518263ffffffff1660e01b81526004016103059190610e39565b60206040518083038186803b15801561031d57600080fd5b505afa158015610331573d6000803e3d6000fd5b505050506040513d601f19601f8201168201806040525081019061035591906112f7565b90508082111561039a576040517f08c379a000000000000000000000000000000000000000000000000000000000815260040161039190611370565b60405180910390fd5b60008054906101000a900473ffffffffffffffffffffffffffffffffffffffff1673ffffffffffffffffffffffffffffffffffffffff1663a9059cbb84846040518363ffffffff1660e01b81526004016103f5929190610c31565b602060405180830381600087803b15801561040f57600080fd5b505af1158015610423573d6000803e3d6000fd5b505050506040513d601f19601f8201168201806040525081019061044791906113a5565b50505050565b6000600380549050905060036040518060c0016040528087878080601f016020809104026020016040519081016040528093929190818152602001838380828437600081840152601f19601f8201169050808301925050505050505081526020018573ffffffffffffffffffffffffffffffffffffffff1681526020018481526020016000151581526020016040518060200160405280600081525081526020018381525090806001815401808255809150506001900390600052602060002090600602016000909190919091506000820151816000019080519060200190610537929190610ae6565b5060208201518160010160006101000a81548173ffffffffffffffffffffffffffffffffffffffff021916908373ffffffffffffffffffffffffffffffffffffffff1602179055506040820151816002015560608201518160030160006101000a81548160ff02191690831515021790555060808201518160040190805190602001906105c5929190610ae6565b5060a082015181600501555050336004600083815260200190815260200160002060006101000a81548173ffffffffffffffffffffffffffffffffffffffff021916908373ffffffffffffffffffffffffffffffffffffffff1602179055507fe4224fac76e68ee2fe2a87cc73a563626ea919ce93b7f5963a8057baf441abb03382604051610655929190610c31565b60405180910390a15050505050565b60046020528060005260406000206000915054906101000a900473ffffffffffffffffffffffffffffffffffffffff1681565b60008054906101000a900473ffffffffffffffffffffffffffffffffffffffff1681565b81600384815481106106d0576106cf6113d2565b5b906000526020600020906006020160030160006101000a81548160ff02191690831515021790555081156107035761073e565b8060038481548110610718576107176113d2565b5b9060005260206000209060060201600401908051906020019061073c929190610ae6565b505b505050565b6060600060038054905067ffffffffffffffff81111561076657610765610ea2565b5b60405190808252806020026020018201604052801561079f57816020015b61078c610b6c565b8152602001906001900390816107845790505b5090506000805b600380549050811015610a2e573373ffffffffffffffffffffffffffffffffffffffff166004600084815260200190815260200160002060009054906101000a900473ffffffffffffffffffffffffffffffffffffffff1673ffffffffffffffffffffffffffffffffffffffff161415610a1d576003818154811061082e5761082d6113d2565b5b90600052602060002090600602016040518060c001604052908160008201805461085790611430565b80601f016020809104026020016040519081016040528092919081815260200182805461088390611430565b80156108d05780601f106108a5576101008083540402835291602001916108d0565b820191906000526020600020905b8154815290600101906020018083116108b357829003601f168201915b505050505081526020016001820160009054906101000a900473ffffffffffffffffffffffffffffffffffffffff1673ffffffffffffffffffffffffffffffffffffffff1673ffffffffffffffffffffffffffffffffffffffff168152602001600282015481526020016003820160009054906101000a900460ff1615151515815260200160048201805461096490611430565b80601f016020809104026020016040519081016040528092919081815260200182805461099090611430565b80156109dd5780601f106109b2576101008083540402835291602001916109dd565b820191906000526020600020905b8154815290600101906020018083116109c057829003601f168201915b50505050508152602001600582015481525050838381518110610a0357610a026113d2565b5b60200260200101819052508180610a1990611491565b9250505b80610a2790611491565b90506107a6565b5060008167ffffffffffffffff811115610a4b57610a4a610ea2565b5b604051908082528060200260200182016040528015610a8457816020015b610a71610b6c565b815260200190600190039081610a695790505b50905060005b82811015610adc57838181518110610aa557610aa46113d2565b5b6020026020010151828281518110610ac057610abf6113d2565b5b602002602001018190525080610ad590611491565b9050610a8a565b5080935050505090565b828054610af290611430565b90600052602060002090601f016020900481019282610b145760008555610b5b565b82601f10610b2d57805160ff1916838001178555610b5b565b82800160010185558215610b5b579182015b82811115610b5a578251825591602001919060010190610b3f565b5b509050610b689190610bba565b5090565b6040518060c0016040528060608152602001600073ffffffffffffffffffffffffffffffffffffffff1681526020016000815260200160001515815260200160608152602001600081525090565b5b80821115610bd3576000816000905550600101610bbb565b5090565b600073ffffffffffffffffffffffffffffffffffffffff82169050919050565b6000610c0282610bd7565b9050919050565b610c1281610bf7565b82525050565b6000819050919050565b610c2b81610c18565b82525050565b6000604082019050610c466000830185610c09565b610c536020830184610c22565b9392505050565b6000604051905090565b600080fd5b600080fd5b610c7781610bf7565b8114610c8257600080fd5b50565b600081359050610c9481610c6e565b92915050565b600060208284031215610cb057610caf610c64565b5b6000610cbe84828501610c85565b91505092915050565b610cd081610c18565b8114610cdb57600080fd5b50565b600081359050610ced81610cc7565b92915050565b60008060408385031215610d0a57610d09610c64565b5b6000610d1885828601610c85565b9250506020610d2985828601610cde565b9150509250929050565b600080fd5b600080fd5b600080fd5b60008083601f840112610d5857610d57610d33565b5b8235905067ffffffffffffffff811115610d7557610d74610d38565b5b602083019150836001820283011115610d9157610d90610d3d565b5b9250929050565b60008060008060608587031215610db257610db1610c64565b5b600085013567ffffffffffffffff811115610dd057610dcf610c69565b5b610ddc87828801610d42565b94509450506020610def87828801610c85565b9250506040610e0087828801610cde565b91505092959194509250565b600060208284031215610e2257610e21610c64565b5b6000610e3084828501610cde565b91505092915050565b6000602082019050610e4e6000830184610c09565b92915050565b60008115159050919050565b610e6981610e54565b8114610e7457600080fd5b50565b600081359050610e8681610e60565b92915050565b600080fd5b6000601f19601f8301169050919050565b7f4e487b7100000000000000000000000000000000000000000000000000000000600052604160045260246000fd5b610eda82610e91565b810181811067ffffffffffffffff82111715610ef957610ef8610ea2565b5b80604052505050565b6000610f0c610c5a565b9050610f188282610ed1565b919050565b600067ffffffffffffffff821115610f3857610f37610ea2565b5b610f4182610e91565b9050602081019050919050565b82818337600083830152505050565b6000610f70610f6b84610f1d565b610f02565b905082815260208101848484011115610f8c57610f8b610e8c565b5b610f97848285610f4e565b509392505050565b600082601f830112610fb457610fb3610d33565b5b8135610fc4848260208601610f5d565b91505092915050565b600080600060608486031215610fe657610fe5610c64565b5b6000610ff486828701610cde565b935050602061100586828701610e77565b925050604084013567ffffffffffffffff81111561102657611025610c69565b5b61103286828701610f9f565b9150509250925092565b600081519050919050565b600082825260208201905092915050565b6000819050602082019050919050565b600081519050919050565b600082825260208201905092915050565b60005b838110156110a2578082015181840152602081019050611087565b838111156110b1576000848401525b50505050565b60006110c282611068565b6110cc8185611073565b93506110dc818560208601611084565b6110e581610e91565b840191505092915050565b6110f981610bf7565b82525050565b61110881610c18565b82525050565b61111781610e54565b82525050565b600060c083016000830151848203600086015261113a82826110b7565b915050602083015161114f60208601826110f0565b50604083015161116260408601826110ff565b506060830151611175606086018261110e565b506080830151848203608086015261118d82826110b7565b91505060a08301516111a260a08601826110ff565b508091505092915050565b60006111b9838361111d565b905092915050565b6000602082019050919050565b60006111d98261103c565b6111e38185611047565b9350836020820285016111f585611058565b8060005b85811015611231578484038952815161121285826111ad565b945061121d836111c1565b925060208a019950506001810190506111f9565b50829750879550505050505092915050565b6000602082019050818103600083015261125d81846111ce565b905092915050565b600082825260208201905092915050565b7f4f6e6c79206f776e65722063616e2077697468647261772066756e6473000000600082015250565b60006112ac601d83611265565b91506112b782611276565b602082019050919050565b600060208201905081810360008301526112db8161129f565b9050919050565b6000815190506112f181610cc7565b92915050565b60006020828403121561130d5761130c610c64565b5b600061131b848285016112e2565b91505092915050565b7f62616c616e6365206973206c6f77000000000000000000000000000000000000600082015250565b600061135a600e83611265565b915061136582611324565b602082019050919050565b600060208201905081810360008301526113898161134d565b9050919050565b60008151905061139f81610e60565b92915050565b6000602082840312156113bb576113ba610c64565b5b60006113c984828501611390565b91505092915050565b7f4e487b7100000000000000000000000000000000000000000000000000000000600052603260045260246000fd5b7f4e487b7100000000000000000000000000000000000000000000000000000000600052602260045260246000fd5b6000600282049050600182168061144857607f821691505b6020821081141561145c5761145b611401565b5b50919050565b7f4e487b7100000000000000000000000000000000000000000000000000000000600052601160045260246000fd5b600061149c82610c18565b91507fffffffffffffffffffffffffffffffffffffffffffffffffffffffffffffffff8214156114cf576114ce611462565b5b60018201905091905056fea26469706673582212209dc7fb6ff06bbba06f2a53433da75dbb8c128ab0776e0f750eb13d68c457914c64736f6c63430008090033",
  "linkReferences": {},
  "deployedLinkReferences": {}
}