{
  "_format": "hh-sol-artifact-1",
  "contractName": "ticketsDeploy",
  "sourceName": "contracts/ticketsDeploy.sol",
  "abi": [
    {
      "inputs": [],
      "stateMutability": "nonpayable",
      "type": "constructor"
    },
    {
      "anonymous": false,
      "inputs": [
        {
          "indexed": false,
          "internalType": "address",
          "name": "recipent",
          "type": "address"
        },
        {
          "indexed": false,
          "internalType": "uint256",
          "name": "ticketID",
          "type": "uint256"
        }
      ],
      "name": "AddTicket",
      "type": "event"
    },
    {
      "inputs": [
        {
          "internalType": "string",
          "name": "contractInfo",
          "type": "string"
        },
        {
          "internalType": "address",
          "name": "wallet",
          "type": "address"
        },
        {
          "internalType": "uint256",
          "name": "numberOfTokens",
          "type": "uint256"
        }
      ],
      "name": "addTicket",
      "outputs": [],
      "stateMutability": "nonpayable",
      "type": "function"
    },
    {
      "inputs": [],
      "name": "getMyTickets",
      "outputs": [
        {
          "components": [
            {
              "internalType": "string",
              "name": "explanation",
              "type": "string"
            },
            {
              "internalType": "address",
              "name": "walletAddress",
              "type": "address"
            },
            {
              "internalType": "uint256",
              "name": "numberOfTokens",
              "type": "uint256"
            }
          ],
          "internalType": "struct ticketsDeploy.Contracts[]",
          "name": "",
          "type": "tuple[]"
        }
      ],
      "stateMutability": "view",
      "type": "function"
    },
    {
      "inputs": [],
      "name": "giveBalance",
      "outputs": [
        {
          "internalType": "uint256",
          "name": "",
          "type": "uint256"
        }
      ],
      "stateMutability": "view",
      "type": "function"
    },
    {
      "inputs": [
        {
          "internalType": "address",
          "name": "wallet",
          "type": "address"
        },
        {
          "internalType": "uint256",
          "name": "amount",
          "type": "uint256"
        }
      ],
      "name": "sendToken",
      "outputs": [
        {
          "internalType": "bool",
          "name": "",
          "type": "bool"
        }
      ],
      "stateMutability": "nonpayable",
      "type": "function"
    },
    {
      "inputs": [],
      "name": "setOwner",
      "outputs": [
        {
          "internalType": "address",
          "name": "",
          "type": "address"
        }
      ],
      "stateMutability": "nonpayable",
      "type": "function"
    },
    {
      "inputs": [
        {
          "internalType": "address",
          "name": "_address",
          "type": "address"
        }
      ],
      "name": "setTokenAddress",
      "outputs": [],
      "stateMutability": "nonpayable",
      "type": "function"
    },
    {
      "inputs": [
        {
          "internalType": "uint256",
          "name": "",
          "type": "uint256"
        }
      ],
      "name": "ticketsToOwner",
      "outputs": [
        {
          "internalType": "address",
          "name": "",
          "type": "address"
        }
      ],
      "stateMutability": "view",
      "type": "function"
    },
    {
      "inputs": [],
      "name": "tokenAddress",
      "outputs": [
        {
          "internalType": "address",
          "name": "",
          "type": "address"
        }
      ],
      "stateMutability": "view",
      "type": "function"
    }
  ],
  "bytecode": "0x608060405234801561001057600080fd5b5033600260006101000a81548173ffffffffffffffffffffffffffffffffffffffff021916908373ffffffffffffffffffffffffffffffffffffffff160217905550611071806100616000396000f3fe608060405234801561001057600080fd5b50600436106100885760003560e01c80636f6185a71161005b5780636f6185a7146101135780639c03645e146101435780639d76ea5814610161578063e1d10d851461017f57610088565b806326a4e8d21461008d57806340caae06146100a9578063412664ae146100c75780636a0ad16b146100f7575b600080fd5b6100a760048036038101906100a291906109eb565b61019d565b005b6100b16101e0565b6040516100be9190610a27565b60405180910390f35b6100e160048036038101906100dc9190610a78565b61024b565b6040516100ee9190610ad3565b60405180910390f35b610111600480360381019061010c9190610b53565b610305565b005b61012d60048036038101906101289190610bc7565b6104b1565b60405161013a9190610a27565b60405180910390f35b61014b6104e4565b6040516101589190610c03565b60405180910390f35b610169610599565b6040516101769190610a27565b60405180910390f35b6101876105bd565b6040516101949190610de7565b60405180910390f35b806000806101000a81548173ffffffffffffffffffffffffffffffffffffffff021916908373ffffffffffffffffffffffffffffffffffffffff16021790555050565b600030600260006101000a81548173ffffffffffffffffffffffffffffffffffffffff021916908373ffffffffffffffffffffffffffffffffffffffff160217905550600260009054906101000a900473ffffffffffffffffffffffffffffffffffffffff16905090565b60008060009054906101000a900473ffffffffffffffffffffffffffffffffffffffff1673ffffffffffffffffffffffffffffffffffffffff166323b872dd3085856040518463ffffffff1660e01b81526004016102ab93929190610e09565b602060405180830381600087803b1580156102c557600080fd5b505af11580156102d9573d6000803e3d6000fd5b505050506040513d601f19601f820116820180604052508101906102fd9190610e6c565b905092915050565b600060038054905090506003604051806060016040528087878080601f016020809104026020016040519081016040528093929190818152602001838380828437600081840152601f19601f8201169050808301925050505050505081526020018573ffffffffffffffffffffffffffffffffffffffff16815260200184815250908060018154018082558091505060019003906000526020600020906003020160009091909190915060008201518160000190805190602001906103cb9291906108a9565b5060208201518160010160006101000a81548173ffffffffffffffffffffffffffffffffffffffff021916908373ffffffffffffffffffffffffffffffffffffffff160217905550604082015181600201555050336004600083815260200190815260200160002060006101000a81548173ffffffffffffffffffffffffffffffffffffffff021916908373ffffffffffffffffffffffffffffffffffffffff1602179055507fe4224fac76e68ee2fe2a87cc73a563626ea919ce93b7f5963a8057baf441abb033826040516104a2929190610e99565b60405180910390a15050505050565b60046020528060005260406000206000915054906101000a900473ffffffffffffffffffffffffffffffffffffffff1681565b60008060008054906101000a900473ffffffffffffffffffffffffffffffffffffffff1673ffffffffffffffffffffffffffffffffffffffff166370a08231306040518263ffffffff1660e01b81526004016105409190610a27565b60206040518083038186803b15801561055857600080fd5b505afa15801561056c573d6000803e3d6000fd5b505050506040513d601f19601f820116820180604052508101906105909190610ed7565b90508091505090565b60008054906101000a900473ffffffffffffffffffffffffffffffffffffffff1681565b6060600060038054905067ffffffffffffffff8111156105e0576105df610f04565b5b60405190808252806020026020018201604052801561061957816020015b61060661092f565b8152602001906001900390816105fe5790505b5090506000805b6003805490508110156107f1573373ffffffffffffffffffffffffffffffffffffffff166004600084815260200190815260200160002060009054906101000a900473ffffffffffffffffffffffffffffffffffffffff1673ffffffffffffffffffffffffffffffffffffffff1614156107e057600381815481106106a8576106a7610f33565b5b90600052602060002090600302016040518060600160405290816000820180546106d190610f91565b80601f01602080910402602001604051908101604052809291908181526020018280546106fd90610f91565b801561074a5780601f1061071f5761010080835404028352916020019161074a565b820191906000526020600020905b81548152906001019060200180831161072d57829003601f168201915b505050505081526020016001820160009054906101000a900473ffffffffffffffffffffffffffffffffffffffff1673ffffffffffffffffffffffffffffffffffffffff1673ffffffffffffffffffffffffffffffffffffffff1681526020016002820154815250508383815181106107c6576107c5610f33565b5b602002602001018190525081806107dc90610ff2565b9250505b806107ea90610ff2565b9050610620565b5060008167ffffffffffffffff81111561080e5761080d610f04565b5b60405190808252806020026020018201604052801561084757816020015b61083461092f565b81526020019060019003908161082c5790505b50905060005b8281101561089f5783818151811061086857610867610f33565b5b602002602001015182828151811061088357610882610f33565b5b60200260200101819052508061089890610ff2565b905061084d565b5080935050505090565b8280546108b590610f91565b90600052602060002090601f0160209004810192826108d7576000855561091e565b82601f106108f057805160ff191683800117855561091e565b8280016001018555821561091e579182015b8281111561091d578251825591602001919060010190610902565b5b50905061092b9190610966565b5090565b604051806060016040528060608152602001600073ffffffffffffffffffffffffffffffffffffffff168152602001600081525090565b5b8082111561097f576000816000905550600101610967565b5090565b600080fd5b600080fd5b600073ffffffffffffffffffffffffffffffffffffffff82169050919050565b60006109b88261098d565b9050919050565b6109c8816109ad565b81146109d357600080fd5b50565b6000813590506109e5816109bf565b92915050565b600060208284031215610a0157610a00610983565b5b6000610a0f848285016109d6565b91505092915050565b610a21816109ad565b82525050565b6000602082019050610a3c6000830184610a18565b92915050565b6000819050919050565b610a5581610a42565b8114610a6057600080fd5b50565b600081359050610a7281610a4c565b92915050565b60008060408385031215610a8f57610a8e610983565b5b6000610a9d858286016109d6565b9250506020610aae85828601610a63565b9150509250929050565b60008115159050919050565b610acd81610ab8565b82525050565b6000602082019050610ae86000830184610ac4565b92915050565b600080fd5b600080fd5b600080fd5b60008083601f840112610b1357610b12610aee565b5b8235905067ffffffffffffffff811115610b3057610b2f610af3565b5b602083019150836001820283011115610b4c57610b4b610af8565b5b9250929050565b60008060008060608587031215610b6d57610b6c610983565b5b600085013567ffffffffffffffff811115610b8b57610b8a610988565b5b610b9787828801610afd565b94509450506020610baa878288016109d6565b9250506040610bbb87828801610a63565b91505092959194509250565b600060208284031215610bdd57610bdc610983565b5b6000610beb84828501610a63565b91505092915050565b610bfd81610a42565b82525050565b6000602082019050610c186000830184610bf4565b92915050565b600081519050919050565b600082825260208201905092915050565b6000819050602082019050919050565b600081519050919050565b600082825260208201905092915050565b60005b83811015610c84578082015181840152602081019050610c69565b83811115610c93576000848401525b50505050565b6000601f19601f8301169050919050565b6000610cb582610c4a565b610cbf8185610c55565b9350610ccf818560208601610c66565b610cd881610c99565b840191505092915050565b610cec816109ad565b82525050565b610cfb81610a42565b82525050565b60006060830160008301518482036000860152610d1e8282610caa565b9150506020830151610d336020860182610ce3565b506040830151610d466040860182610cf2565b508091505092915050565b6000610d5d8383610d01565b905092915050565b6000602082019050919050565b6000610d7d82610c1e565b610d878185610c29565b935083602082028501610d9985610c3a565b8060005b85811015610dd55784840389528151610db68582610d51565b9450610dc183610d65565b925060208a01995050600181019050610d9d565b50829750879550505050505092915050565b60006020820190508181036000830152610e018184610d72565b905092915050565b6000606082019050610e1e6000830186610a18565b610e2b6020830185610a18565b610e386040830184610bf4565b949350505050565b610e4981610ab8565b8114610e5457600080fd5b50565b600081519050610e6681610e40565b92915050565b600060208284031215610e8257610e81610983565b5b6000610e9084828501610e57565b91505092915050565b6000604082019050610eae6000830185610a18565b610ebb6020830184610bf4565b9392505050565b600081519050610ed181610a4c565b92915050565b600060208284031215610eed57610eec610983565b5b6000610efb84828501610ec2565b91505092915050565b7f4e487b7100000000000000000000000000000000000000000000000000000000600052604160045260246000fd5b7f4e487b7100000000000000000000000000000000000000000000000000000000600052603260045260246000fd5b7f4e487b7100000000000000000000000000000000000000000000000000000000600052602260045260246000fd5b60006002820490506001821680610fa957607f821691505b60208210811415610fbd57610fbc610f62565b5b50919050565b7f4e487b7100000000000000000000000000000000000000000000000000000000600052601160045260246000fd5b6000610ffd82610a42565b91507fffffffffffffffffffffffffffffffffffffffffffffffffffffffffffffffff8214156110305761102f610fc3565b5b60018201905091905056fea26469706673582212208ad50c730c4a9d246dbc1ae7d7d6503171fddbba94e6586b2bf0f29884b985bf64736f6c63430008090033",
  "linkReferences": {},
  "deployedLinkReferences": {}
}