{
  "_format": "hh-sol-artifact-1",
  "contractName": "dataBase",
  "sourceName": "contracts/dataBase.sol",
  "abi": [
    {
      "inputs": [
        {
          "internalType": "string",
          "name": "name",
          "type": "string"
        },
        {
          "internalType": "string",
          "name": "lastName",
          "type": "string"
        },
        {
          "internalType": "string",
          "name": "email",
          "type": "string"
        }
      ],
      "stateMutability": "nonpayable",
      "type": "constructor"
    },
    {
      "inputs": [
        {
          "internalType": "address",
          "name": "user",
          "type": "address"
        },
        {
          "internalType": "string",
          "name": "name",
          "type": "string"
        },
        {
          "internalType": "string",
          "name": "lastName",
          "type": "string"
        },
        {
          "internalType": "string",
          "name": "email",
          "type": "string"
        },
        {
          "internalType": "enum dataBase.accountType",
          "name": "typeAccount",
          "type": "uint8"
        }
      ],
      "name": "addPerson",
      "outputs": [
        {
          "internalType": "bool",
          "name": "",
          "type": "bool"
        }
      ],
      "stateMutability": "nonpayable",
      "type": "function"
    },
    {
      "inputs": [
        {
          "internalType": "string",
          "name": "email",
          "type": "string"
        }
      ],
      "name": "doesHeExist",
      "outputs": [
        {
          "internalType": "bool",
          "name": "",
          "type": "bool"
        }
      ],
      "stateMutability": "view",
      "type": "function"
    },
    {
      "inputs": [],
      "name": "getActivate",
      "outputs": [
        {
          "internalType": "bool",
          "name": "",
          "type": "bool"
        }
      ],
      "stateMutability": "view",
      "type": "function"
    },
    {
      "inputs": [
        {
          "internalType": "string",
          "name": "email",
          "type": "string"
        }
      ],
      "name": "getAddressFromEmail",
      "outputs": [
        {
          "internalType": "address",
          "name": "",
          "type": "address"
        }
      ],
      "stateMutability": "view",
      "type": "function"
    },
    {
      "inputs": [],
      "name": "getString",
      "outputs": [
        {
          "internalType": "string",
          "name": "",
          "type": "string"
        }
      ],
      "stateMutability": "view",
      "type": "function"
    },
    {
      "inputs": [],
      "name": "getType",
      "outputs": [
        {
          "internalType": "enum dataBase.accountType",
          "name": "",
          "type": "uint8"
        }
      ],
      "stateMutability": "view",
      "type": "function"
    }
  ],
  "bytecode": "0x60806040523480156200001157600080fd5b506040516200168c3803806200168c8339818101604052810190620000379190620005c8565b336000806101000a81548173ffffffffffffffffffffffffffffffffffffffff021916908373ffffffffffffffffffffffffffffffffffffffff16021790555060018060008060009054906101000a900473ffffffffffffffffffffffffffffffffffffffff1673ffffffffffffffffffffffffffffffffffffffff1673ffffffffffffffffffffffffffffffffffffffff16815260200190815260200160002060030160016101000a81548160ff02191690831515021790555082600160008060009054906101000a900473ffffffffffffffffffffffffffffffffffffffff1673ffffffffffffffffffffffffffffffffffffffff1673ffffffffffffffffffffffffffffffffffffffff16815260200190815260200160002060000190805190602001906200016b9291906200037b565b5081600160008060009054906101000a900473ffffffffffffffffffffffffffffffffffffffff1673ffffffffffffffffffffffffffffffffffffffff1673ffffffffffffffffffffffffffffffffffffffff1681526020019081526020016000206001019080519060200190620001e59291906200037b565b5080600160008060009054906101000a900473ffffffffffffffffffffffffffffffffffffffff1673ffffffffffffffffffffffffffffffffffffffff1673ffffffffffffffffffffffffffffffffffffffff16815260200190815260200160002060020190805190602001906200025f9291906200037b565b506003600160008060009054906101000a900473ffffffffffffffffffffffffffffffffffffffff1673ffffffffffffffffffffffffffffffffffffffff1673ffffffffffffffffffffffffffffffffffffffff16815260200190815260200160002060030160006101000a81548160ff02191690836003811115620002ea57620002e962000681565b5b0217905550600260008054906101000a900473ffffffffffffffffffffffffffffffffffffffff169080600181540180825580915050600190039060005260206000200160009091909190916101000a81548173ffffffffffffffffffffffffffffffffffffffff021916908373ffffffffffffffffffffffffffffffffffffffff16021790555050505062000715565b8280546200038990620006df565b90600052602060002090601f016020900481019282620003ad5760008555620003f9565b82601f10620003c857805160ff1916838001178555620003f9565b82800160010185558215620003f9579182015b82811115620003f8578251825591602001919060010190620003db565b5b5090506200040891906200040c565b5090565b5b80821115620004275760008160009055506001016200040d565b5090565b6000604051905090565b600080fd5b600080fd5b600080fd5b600080fd5b6000601f19601f8301169050919050565b7f4e487b7100000000000000000000000000000000000000000000000000000000600052604160045260246000fd5b620004948262000449565b810181811067ffffffffffffffff82111715620004b657620004b56200045a565b5b80604052505050565b6000620004cb6200042b565b9050620004d9828262000489565b919050565b600067ffffffffffffffff821115620004fc57620004fb6200045a565b5b620005078262000449565b9050602081019050919050565b60005b838110156200053457808201518184015260208101905062000517565b8381111562000544576000848401525b50505050565b6000620005616200055b84620004de565b620004bf565b90508281526020810184848401111562000580576200057f62000444565b5b6200058d84828562000514565b509392505050565b600082601f830112620005ad57620005ac6200043f565b5b8151620005bf8482602086016200054a565b91505092915050565b600080600060608486031215620005e457620005e362000435565b5b600084015167ffffffffffffffff8111156200060557620006046200043a565b5b620006138682870162000595565b935050602084015167ffffffffffffffff8111156200063757620006366200043a565b5b620006458682870162000595565b925050604084015167ffffffffffffffff8111156200066957620006686200043a565b5b620006778682870162000595565b9150509250925092565b7f4e487b7100000000000000000000000000000000000000000000000000000000600052602160045260246000fd5b7f4e487b7100000000000000000000000000000000000000000000000000000000600052602260045260246000fd5b60006002820490506001821680620006f857607f821691505b602082108114156200070f576200070e620006b0565b5b50919050565b610f6780620007256000396000f3fe608060405234801561001057600080fd5b50600436106100625760003560e01c8063048cf8c0146100675780630616dbce1461009757806315dae03e146100c757806324713d4d146100e557806389ea642f14610103578063feb97a4214610121575b600080fd5b610081600480360381019061007c9190610a6d565b610151565b60405161008e9190610b57565b60405180910390f35b6100b160048036038101906100ac9190610b72565b610411565b6040516100be9190610bca565b60405180910390f35b6100cf61055d565b6040516100dc9190610c5c565b60405180910390f35b6100ed6105b4565b6040516100fa9190610b57565b60405180910390f35b61010b61060b565b6040516101189190610cff565b60405180910390f35b61013b60048036038101906101369190610b72565b6106dd565b6040516101489190610b57565b60405180910390f35b600080600381111561016657610165610be5565b5b600160003373ffffffffffffffffffffffffffffffffffffffff1673ffffffffffffffffffffffffffffffffffffffff16815260200190815260200160002060030160009054906101000a900460ff1660038111156101c8576101c7610be5565b5b14156101d75760009050610408565b60018060008873ffffffffffffffffffffffffffffffffffffffff1673ffffffffffffffffffffffffffffffffffffffff16815260200190815260200160002060030160016101000a81548160ff02191690831515021790555084600160008873ffffffffffffffffffffffffffffffffffffffff1673ffffffffffffffffffffffffffffffffffffffff16815260200190815260200160002060000190805190602001906102879291906107ed565b5083600160008873ffffffffffffffffffffffffffffffffffffffff1673ffffffffffffffffffffffffffffffffffffffff16815260200190815260200160002060010190805190602001906102de9291906107ed565b5082600160008873ffffffffffffffffffffffffffffffffffffffff1673ffffffffffffffffffffffffffffffffffffffff16815260200190815260200160002060020190805190602001906103359291906107ed565b5081600160008873ffffffffffffffffffffffffffffffffffffffff1673ffffffffffffffffffffffffffffffffffffffff16815260200190815260200160002060030160006101000a81548160ff0219169083600381111561039b5761039a610be5565b5b02179055506002869080600181540180825580915050600190039060005260206000200160009091909190916101000a81548173ffffffffffffffffffffffffffffffffffffffff021916908373ffffffffffffffffffffffffffffffffffffffff160217905550600190505b95945050505050565b600080600090505b60028054905081101561055357600160006002838154811061043e5761043d610d21565b5b9060005260206000200160009054906101000a900473ffffffffffffffffffffffffffffffffffffffff1673ffffffffffffffffffffffffffffffffffffffff1673ffffffffffffffffffffffffffffffffffffffff1681526020019081526020016000206002016040516020016104b69190610e50565b60405160208183030381529060405280519060200120836040516020016104dd9190610e98565b604051602081830303815290604052805190602001201415610540576002818154811061050d5761050c610d21565b5b9060005260206000200160009054906101000a900473ffffffffffffffffffffffffffffffffffffffff16915050610558565b808061054b90610ee8565b915050610419565b503390505b919050565b6000600160003373ffffffffffffffffffffffffffffffffffffffff1673ffffffffffffffffffffffffffffffffffffffff16815260200190815260200160002060030160009054906101000a900460ff16905090565b6000600160003373ffffffffffffffffffffffffffffffffffffffff1673ffffffffffffffffffffffffffffffffffffffff16815260200190815260200160002060030160019054906101000a900460ff16905090565b6060600160003373ffffffffffffffffffffffffffffffffffffffff1673ffffffffffffffffffffffffffffffffffffffff168152602001908152602001600020600001805461065a90610d7f565b80601f016020809104026020016040519081016040528092919081815260200182805461068690610d7f565b80156106d35780601f106106a8576101008083540402835291602001916106d3565b820191906000526020600020905b8154815290600101906020018083116106b657829003601f168201915b5050505050905090565b600080600090505b6002805490508110156107e257600160006002838154811061070a57610709610d21565b5b9060005260206000200160009054906101000a900473ffffffffffffffffffffffffffffffffffffffff1673ffffffffffffffffffffffffffffffffffffffff1673ffffffffffffffffffffffffffffffffffffffff1681526020019081526020016000206002016040516020016107829190610e50565b60405160208183030381529060405280519060200120836040516020016107a99190610e98565b6040516020818303038152906040528051906020012014156107cf5760019150506107e8565b80806107da90610ee8565b9150506106e5565b50600090505b919050565b8280546107f990610d7f565b90600052602060002090601f01602090048101928261081b5760008555610862565b82601f1061083457805160ff1916838001178555610862565b82800160010185558215610862579182015b82811115610861578251825591602001919060010190610846565b5b50905061086f9190610873565b5090565b5b8082111561088c576000816000905550600101610874565b5090565b6000604051905090565b600080fd5b600080fd5b600073ffffffffffffffffffffffffffffffffffffffff82169050919050565b60006108cf826108a4565b9050919050565b6108df816108c4565b81146108ea57600080fd5b50565b6000813590506108fc816108d6565b92915050565b600080fd5b600080fd5b6000601f19601f8301169050919050565b7f4e487b7100000000000000000000000000000000000000000000000000000000600052604160045260246000fd5b6109558261090c565b810181811067ffffffffffffffff821117156109745761097361091d565b5b80604052505050565b6000610987610890565b9050610993828261094c565b919050565b600067ffffffffffffffff8211156109b3576109b261091d565b5b6109bc8261090c565b9050602081019050919050565b82818337600083830152505050565b60006109eb6109e684610998565b61097d565b905082815260208101848484011115610a0757610a06610907565b5b610a128482856109c9565b509392505050565b600082601f830112610a2f57610a2e610902565b5b8135610a3f8482602086016109d8565b91505092915050565b60048110610a5557600080fd5b50565b600081359050610a6781610a48565b92915050565b600080600080600060a08688031215610a8957610a8861089a565b5b6000610a97888289016108ed565b955050602086013567ffffffffffffffff811115610ab857610ab761089f565b5b610ac488828901610a1a565b945050604086013567ffffffffffffffff811115610ae557610ae461089f565b5b610af188828901610a1a565b935050606086013567ffffffffffffffff811115610b1257610b1161089f565b5b610b1e88828901610a1a565b9250506080610b2f88828901610a58565b9150509295509295909350565b60008115159050919050565b610b5181610b3c565b82525050565b6000602082019050610b6c6000830184610b48565b92915050565b600060208284031215610b8857610b8761089a565b5b600082013567ffffffffffffffff811115610ba657610ba561089f565b5b610bb284828501610a1a565b91505092915050565b610bc4816108c4565b82525050565b6000602082019050610bdf6000830184610bbb565b92915050565b7f4e487b7100000000000000000000000000000000000000000000000000000000600052602160045260246000fd5b60048110610c2557610c24610be5565b5b50565b6000819050610c3682610c14565b919050565b6000610c4682610c28565b9050919050565b610c5681610c3b565b82525050565b6000602082019050610c716000830184610c4d565b92915050565b600081519050919050565b600082825260208201905092915050565b60005b83811015610cb1578082015181840152602081019050610c96565b83811115610cc0576000848401525b50505050565b6000610cd182610c77565b610cdb8185610c82565b9350610ceb818560208601610c93565b610cf48161090c565b840191505092915050565b60006020820190508181036000830152610d198184610cc6565b905092915050565b7f4e487b7100000000000000000000000000000000000000000000000000000000600052603260045260246000fd5b7f4e487b7100000000000000000000000000000000000000000000000000000000600052602260045260246000fd5b60006002820490506001821680610d9757607f821691505b60208210811415610dab57610daa610d50565b5b50919050565b600081905092915050565b60008190508160005260206000209050919050565b60008154610dde81610d7f565b610de88186610db1565b94506001821660008114610e035760018114610e1457610e47565b60ff19831686528186019350610e47565b610e1d85610dbc565b60005b83811015610e3f57815481890152600182019150602081019050610e20565b838801955050505b50505092915050565b6000610e5c8284610dd1565b915081905092915050565b6000610e7282610c77565b610e7c8185610db1565b9350610e8c818560208601610c93565b80840191505092915050565b6000610ea48284610e67565b915081905092915050565b7f4e487b7100000000000000000000000000000000000000000000000000000000600052601160045260246000fd5b6000819050919050565b6000610ef382610ede565b91507fffffffffffffffffffffffffffffffffffffffffffffffffffffffffffffffff821415610f2657610f25610eaf565b5b60018201905091905056fea2646970667358221220d2f039f664e20d15d1d132754a29e73cffe3890defa41defb7bad6e02f745ec264736f6c63430008090033",
  "linkReferences": {},
  "deployedLinkReferences": {}
}