{
  "_format": "hh-sol-artifact-1",
  "contractName": "dataBase",
  "sourceName": "contracts/dataBase.sol",
  "abi": [
    {
      "inputs": [
        {
          "internalType": "string",
          "name": "name",
          "type": "string"
        },
        {
          "internalType": "string",
          "name": "lastName",
          "type": "string"
        },
        {
          "internalType": "string",
          "name": "email",
          "type": "string"
        }
      ],
      "stateMutability": "nonpayable",
      "type": "constructor"
    },
    {
      "inputs": [
        {
          "internalType": "address",
          "name": "user",
          "type": "address"
        },
        {
          "internalType": "string",
          "name": "name",
          "type": "string"
        },
        {
          "internalType": "string",
          "name": "lastName",
          "type": "string"
        },
        {
          "internalType": "string",
          "name": "email",
          "type": "string"
        },
        {
          "internalType": "enum dataBase.accountType",
          "name": "typeAccount",
          "type": "uint8"
        }
      ],
      "name": "addPerson",
      "outputs": [
        {
          "internalType": "bool",
          "name": "",
          "type": "bool"
        }
      ],
      "stateMutability": "nonpayable",
      "type": "function"
    },
    {
      "inputs": [
        {
          "internalType": "string",
          "name": "email",
          "type": "string"
        }
      ],
      "name": "doesHeExist",
      "outputs": [
        {
          "internalType": "bool",
          "name": "",
          "type": "bool"
        }
      ],
      "stateMutability": "view",
      "type": "function"
    },
    {
      "inputs": [
        {
          "internalType": "address",
          "name": "wallet",
          "type": "address"
        }
      ],
      "name": "getActivate",
      "outputs": [
        {
          "internalType": "bool",
          "name": "",
          "type": "bool"
        }
      ],
      "stateMutability": "view",
      "type": "function"
    },
    {
      "inputs": [
        {
          "internalType": "string",
          "name": "email",
          "type": "string"
        }
      ],
      "name": "getAddressFromEmail",
      "outputs": [
        {
          "internalType": "address",
          "name": "",
          "type": "address"
        }
      ],
      "stateMutability": "view",
      "type": "function"
    },
    {
      "inputs": [],
      "name": "getString",
      "outputs": [
        {
          "internalType": "string",
          "name": "",
          "type": "string"
        }
      ],
      "stateMutability": "view",
      "type": "function"
    },
    {
      "inputs": [],
      "name": "getType",
      "outputs": [
        {
          "internalType": "enum dataBase.accountType",
          "name": "",
          "type": "uint8"
        }
      ],
      "stateMutability": "view",
      "type": "function"
    },
    {
      "inputs": [],
      "name": "length",
      "outputs": [
        {
          "internalType": "uint256",
          "name": "",
          "type": "uint256"
        }
      ],
      "stateMutability": "view",
      "type": "function"
    }
  ],
  "bytecode": "0x60806040523480156200001157600080fd5b5060405162001752380380620017528339818101604052810190620000379190620005c8565b336000806101000a81548173ffffffffffffffffffffffffffffffffffffffff021916908373ffffffffffffffffffffffffffffffffffffffff16021790555060018060008060009054906101000a900473ffffffffffffffffffffffffffffffffffffffff1673ffffffffffffffffffffffffffffffffffffffff1673ffffffffffffffffffffffffffffffffffffffff16815260200190815260200160002060030160016101000a81548160ff02191690831515021790555082600160008060009054906101000a900473ffffffffffffffffffffffffffffffffffffffff1673ffffffffffffffffffffffffffffffffffffffff1673ffffffffffffffffffffffffffffffffffffffff16815260200190815260200160002060000190805190602001906200016b9291906200037b565b5081600160008060009054906101000a900473ffffffffffffffffffffffffffffffffffffffff1673ffffffffffffffffffffffffffffffffffffffff1673ffffffffffffffffffffffffffffffffffffffff1681526020019081526020016000206001019080519060200190620001e59291906200037b565b5080600160008060009054906101000a900473ffffffffffffffffffffffffffffffffffffffff1673ffffffffffffffffffffffffffffffffffffffff1673ffffffffffffffffffffffffffffffffffffffff16815260200190815260200160002060020190805190602001906200025f9291906200037b565b506003600160008060009054906101000a900473ffffffffffffffffffffffffffffffffffffffff1673ffffffffffffffffffffffffffffffffffffffff1673ffffffffffffffffffffffffffffffffffffffff16815260200190815260200160002060030160006101000a81548160ff02191690836003811115620002ea57620002e962000681565b5b0217905550600260008054906101000a900473ffffffffffffffffffffffffffffffffffffffff169080600181540180825580915050600190039060005260206000200160009091909190916101000a81548173ffffffffffffffffffffffffffffffffffffffff021916908373ffffffffffffffffffffffffffffffffffffffff16021790555050505062000715565b8280546200038990620006df565b90600052602060002090601f016020900481019282620003ad5760008555620003f9565b82601f10620003c857805160ff1916838001178555620003f9565b82800160010185558215620003f9579182015b82811115620003f8578251825591602001919060010190620003db565b5b5090506200040891906200040c565b5090565b5b80821115620004275760008160009055506001016200040d565b5090565b6000604051905090565b600080fd5b600080fd5b600080fd5b600080fd5b6000601f19601f8301169050919050565b7f4e487b7100000000000000000000000000000000000000000000000000000000600052604160045260246000fd5b620004948262000449565b810181811067ffffffffffffffff82111715620004b657620004b56200045a565b5b80604052505050565b6000620004cb6200042b565b9050620004d9828262000489565b919050565b600067ffffffffffffffff821115620004fc57620004fb6200045a565b5b620005078262000449565b9050602081019050919050565b60005b838110156200053457808201518184015260208101905062000517565b8381111562000544576000848401525b50505050565b6000620005616200055b84620004de565b620004bf565b90508281526020810184848401111562000580576200057f62000444565b5b6200058d84828562000514565b509392505050565b600082601f830112620005ad57620005ac6200043f565b5b8151620005bf8482602086016200054a565b91505092915050565b600080600060608486031215620005e457620005e362000435565b5b600084015167ffffffffffffffff8111156200060557620006046200043a565b5b620006138682870162000595565b935050602084015167ffffffffffffffff8111156200063757620006366200043a565b5b620006458682870162000595565b925050604084015167ffffffffffffffff8111156200066957620006686200043a565b5b620006778682870162000595565b9150509250925092565b7f4e487b7100000000000000000000000000000000000000000000000000000000600052602160045260246000fd5b7f4e487b7100000000000000000000000000000000000000000000000000000000600052602260045260246000fd5b60006002820490506001821680620006f857607f821691505b602082108114156200070f576200070e620006b0565b5b50919050565b61102d80620007256000396000f3fe608060405234801561001057600080fd5b506004361061007d5760003560e01c80631f7b6d321161005b5780631f7b6d321461010057806341f5dac11461011e57806389ea642f1461014e578063feb97a421461016c5761007d565b8063048cf8c0146100825780630616dbce146100b257806315dae03e146100e2575b600080fd5b61009c60048036038101906100979190610adc565b61019c565b6040516100a99190610bc6565b60405180910390f35b6100cc60048036038101906100c79190610be1565b61046c565b6040516100d99190610c39565b60405180910390f35b6100ea6105b8565b6040516100f79190610ccb565b60405180910390f35b61010861060f565b6040516101159190610cff565b60405180910390f35b61013860048036038101906101339190610d1a565b610621565b6040516101459190610bc6565b60405180910390f35b61015661067a565b6040516101639190610dcf565b60405180910390f35b61018660048036038101906101819190610be1565b61074c565b6040516101939190610bc6565b60405180910390f35b60008060038111156101b1576101b0610c54565b5b600160003373ffffffffffffffffffffffffffffffffffffffff1673ffffffffffffffffffffffffffffffffffffffff16815260200190815260200160002060030160009054906101000a900460ff16600381111561021357610212610c54565b5b1480610224575061022386610621565b5b156102325760009050610463565b60018060008873ffffffffffffffffffffffffffffffffffffffff1673ffffffffffffffffffffffffffffffffffffffff16815260200190815260200160002060030160016101000a81548160ff02191690831515021790555084600160008873ffffffffffffffffffffffffffffffffffffffff1673ffffffffffffffffffffffffffffffffffffffff16815260200190815260200160002060000190805190602001906102e292919061085c565b5083600160008873ffffffffffffffffffffffffffffffffffffffff1673ffffffffffffffffffffffffffffffffffffffff168152602001908152602001600020600101908051906020019061033992919061085c565b5082600160008873ffffffffffffffffffffffffffffffffffffffff1673ffffffffffffffffffffffffffffffffffffffff168152602001908152602001600020600201908051906020019061039092919061085c565b5081600160008873ffffffffffffffffffffffffffffffffffffffff1673ffffffffffffffffffffffffffffffffffffffff16815260200190815260200160002060030160006101000a81548160ff021916908360038111156103f6576103f5610c54565b5b02179055506002869080600181540180825580915050600190039060005260206000200160009091909190916101000a81548173ffffffffffffffffffffffffffffffffffffffff021916908373ffffffffffffffffffffffffffffffffffffffff160217905550600190505b95945050505050565b600080600090505b6002805490508110156105ae57600160006002838154811061049957610498610df1565b5b9060005260206000200160009054906101000a900473ffffffffffffffffffffffffffffffffffffffff1673ffffffffffffffffffffffffffffffffffffffff1673ffffffffffffffffffffffffffffffffffffffff1681526020019081526020016000206002016040516020016105119190610f20565b60405160208183030381529060405280519060200120836040516020016105389190610f68565b60405160208183030381529060405280519060200120141561059b576002818154811061056857610567610df1565b5b9060005260206000200160009054906101000a900473ffffffffffffffffffffffffffffffffffffffff169150506105b3565b80806105a690610fae565b915050610474565b503390505b919050565b6000600160003373ffffffffffffffffffffffffffffffffffffffff1673ffffffffffffffffffffffffffffffffffffffff16815260200190815260200160002060030160009054906101000a900460ff16905090565b60008060028054905090508091505090565b6000600160008373ffffffffffffffffffffffffffffffffffffffff1673ffffffffffffffffffffffffffffffffffffffff16815260200190815260200160002060030160019054906101000a900460ff169050919050565b6060600160003373ffffffffffffffffffffffffffffffffffffffff1673ffffffffffffffffffffffffffffffffffffffff16815260200190815260200160002060000180546106c990610e4f565b80601f01602080910402602001604051908101604052809291908181526020018280546106f590610e4f565b80156107425780601f1061071757610100808354040283529160200191610742565b820191906000526020600020905b81548152906001019060200180831161072557829003601f168201915b5050505050905090565b600080600090505b60028054905081101561085157600160006002838154811061077957610778610df1565b5b9060005260206000200160009054906101000a900473ffffffffffffffffffffffffffffffffffffffff1673ffffffffffffffffffffffffffffffffffffffff1673ffffffffffffffffffffffffffffffffffffffff1681526020019081526020016000206002016040516020016107f19190610f20565b60405160208183030381529060405280519060200120836040516020016108189190610f68565b60405160208183030381529060405280519060200120141561083e576001915050610857565b808061084990610fae565b915050610754565b50600090505b919050565b82805461086890610e4f565b90600052602060002090601f01602090048101928261088a57600085556108d1565b82601f106108a357805160ff19168380011785556108d1565b828001600101855582156108d1579182015b828111156108d05782518255916020019190600101906108b5565b5b5090506108de91906108e2565b5090565b5b808211156108fb5760008160009055506001016108e3565b5090565b6000604051905090565b600080fd5b600080fd5b600073ffffffffffffffffffffffffffffffffffffffff82169050919050565b600061093e82610913565b9050919050565b61094e81610933565b811461095957600080fd5b50565b60008135905061096b81610945565b92915050565b600080fd5b600080fd5b6000601f19601f8301169050919050565b7f4e487b7100000000000000000000000000000000000000000000000000000000600052604160045260246000fd5b6109c48261097b565b810181811067ffffffffffffffff821117156109e3576109e261098c565b5b80604052505050565b60006109f66108ff565b9050610a0282826109bb565b919050565b600067ffffffffffffffff821115610a2257610a2161098c565b5b610a2b8261097b565b9050602081019050919050565b82818337600083830152505050565b6000610a5a610a5584610a07565b6109ec565b905082815260208101848484011115610a7657610a75610976565b5b610a81848285610a38565b509392505050565b600082601f830112610a9e57610a9d610971565b5b8135610aae848260208601610a47565b91505092915050565b60048110610ac457600080fd5b50565b600081359050610ad681610ab7565b92915050565b600080600080600060a08688031215610af857610af7610909565b5b6000610b068882890161095c565b955050602086013567ffffffffffffffff811115610b2757610b2661090e565b5b610b3388828901610a89565b945050604086013567ffffffffffffffff811115610b5457610b5361090e565b5b610b6088828901610a89565b935050606086013567ffffffffffffffff811115610b8157610b8061090e565b5b610b8d88828901610a89565b9250506080610b9e88828901610ac7565b9150509295509295909350565b60008115159050919050565b610bc081610bab565b82525050565b6000602082019050610bdb6000830184610bb7565b92915050565b600060208284031215610bf757610bf6610909565b5b600082013567ffffffffffffffff811115610c1557610c1461090e565b5b610c2184828501610a89565b91505092915050565b610c3381610933565b82525050565b6000602082019050610c4e6000830184610c2a565b92915050565b7f4e487b7100000000000000000000000000000000000000000000000000000000600052602160045260246000fd5b60048110610c9457610c93610c54565b5b50565b6000819050610ca582610c83565b919050565b6000610cb582610c97565b9050919050565b610cc581610caa565b82525050565b6000602082019050610ce06000830184610cbc565b92915050565b6000819050919050565b610cf981610ce6565b82525050565b6000602082019050610d146000830184610cf0565b92915050565b600060208284031215610d3057610d2f610909565b5b6000610d3e8482850161095c565b91505092915050565b600081519050919050565b600082825260208201905092915050565b60005b83811015610d81578082015181840152602081019050610d66565b83811115610d90576000848401525b50505050565b6000610da182610d47565b610dab8185610d52565b9350610dbb818560208601610d63565b610dc48161097b565b840191505092915050565b60006020820190508181036000830152610de98184610d96565b905092915050565b7f4e487b7100000000000000000000000000000000000000000000000000000000600052603260045260246000fd5b7f4e487b7100000000000000000000000000000000000000000000000000000000600052602260045260246000fd5b60006002820490506001821680610e6757607f821691505b60208210811415610e7b57610e7a610e20565b5b50919050565b600081905092915050565b60008190508160005260206000209050919050565b60008154610eae81610e4f565b610eb88186610e81565b94506001821660008114610ed35760018114610ee457610f17565b60ff19831686528186019350610f17565b610eed85610e8c565b60005b83811015610f0f57815481890152600182019150602081019050610ef0565b838801955050505b50505092915050565b6000610f2c8284610ea1565b915081905092915050565b6000610f4282610d47565b610f4c8185610e81565b9350610f5c818560208601610d63565b80840191505092915050565b6000610f748284610f37565b915081905092915050565b7f4e487b7100000000000000000000000000000000000000000000000000000000600052601160045260246000fd5b6000610fb982610ce6565b91507fffffffffffffffffffffffffffffffffffffffffffffffffffffffffffffffff821415610fec57610feb610f7f565b5b60018201905091905056fea264697066735822122006e64539920864f0502d0679353a33709767370e9064e32f4c8b66b3dd373bc964736f6c63430008090033",
  "linkReferences": {},
  "deployedLinkReferences": {}
}