{
  "_format": "hh-sol-artifact-1",
  "contractName": "Owner",
  "sourceName": "contracts/dataBase.sol",
  "abi": [
    {
      "inputs": [
        {
          "internalType": "string",
          "name": "name",
          "type": "string"
        },
        {
          "internalType": "string",
          "name": "lastName",
          "type": "string"
        },
        {
          "internalType": "string",
          "name": "email",
          "type": "string"
        }
      ],
      "stateMutability": "nonpayable",
      "type": "constructor"
    },
    {
      "inputs": [
        {
          "internalType": "address",
          "name": "user",
          "type": "address"
        },
        {
          "internalType": "string",
          "name": "name",
          "type": "string"
        },
        {
          "internalType": "string",
          "name": "lastName",
          "type": "string"
        },
        {
          "internalType": "string",
          "name": "email",
          "type": "string"
        },
        {
          "internalType": "enum Owner.accountType",
          "name": "typeAccount",
          "type": "uint8"
        }
      ],
      "name": "addPerson",
      "outputs": [
        {
          "internalType": "bool",
          "name": "",
          "type": "bool"
        }
      ],
      "stateMutability": "nonpayable",
      "type": "function"
    },
    {
      "inputs": [
        {
          "internalType": "string",
          "name": "email",
          "type": "string"
        }
      ],
      "name": "doesHeExist",
      "outputs": [
        {
          "internalType": "bool",
          "name": "",
          "type": "bool"
        }
      ],
      "stateMutability": "view",
      "type": "function"
    },
    {
      "inputs": [],
      "name": "getActivate",
      "outputs": [
        {
          "internalType": "bool",
          "name": "",
          "type": "bool"
        }
      ],
      "stateMutability": "view",
      "type": "function"
    },
    {
      "inputs": [
        {
          "internalType": "string",
          "name": "email",
          "type": "string"
        }
      ],
      "name": "getAddressFromEmail",
      "outputs": [
        {
          "internalType": "address",
          "name": "",
          "type": "address"
        }
      ],
      "stateMutability": "view",
      "type": "function"
    },
    {
      "inputs": [],
      "name": "getType",
      "outputs": [
        {
          "internalType": "enum Owner.accountType",
          "name": "",
          "type": "uint8"
        }
      ],
      "stateMutability": "view",
      "type": "function"
    }
  ],
  "bytecode": "0x60806040523480156200001157600080fd5b5060405162001525380380620015258339818101604052810190620000379190620005c8565b336000806101000a81548173ffffffffffffffffffffffffffffffffffffffff021916908373ffffffffffffffffffffffffffffffffffffffff16021790555060018060008060009054906101000a900473ffffffffffffffffffffffffffffffffffffffff1673ffffffffffffffffffffffffffffffffffffffff1673ffffffffffffffffffffffffffffffffffffffff16815260200190815260200160002060030160016101000a81548160ff02191690831515021790555082600160008060009054906101000a900473ffffffffffffffffffffffffffffffffffffffff1673ffffffffffffffffffffffffffffffffffffffff1673ffffffffffffffffffffffffffffffffffffffff16815260200190815260200160002060000190805190602001906200016b9291906200037b565b5081600160008060009054906101000a900473ffffffffffffffffffffffffffffffffffffffff1673ffffffffffffffffffffffffffffffffffffffff1673ffffffffffffffffffffffffffffffffffffffff1681526020019081526020016000206001019080519060200190620001e59291906200037b565b5080600160008060009054906101000a900473ffffffffffffffffffffffffffffffffffffffff1673ffffffffffffffffffffffffffffffffffffffff1673ffffffffffffffffffffffffffffffffffffffff16815260200190815260200160002060020190805190602001906200025f9291906200037b565b506003600160008060009054906101000a900473ffffffffffffffffffffffffffffffffffffffff1673ffffffffffffffffffffffffffffffffffffffff1673ffffffffffffffffffffffffffffffffffffffff16815260200190815260200160002060030160006101000a81548160ff02191690836003811115620002ea57620002e962000681565b5b0217905550600260008054906101000a900473ffffffffffffffffffffffffffffffffffffffff169080600181540180825580915050600190039060005260206000200160009091909190916101000a81548173ffffffffffffffffffffffffffffffffffffffff021916908373ffffffffffffffffffffffffffffffffffffffff16021790555050505062000715565b8280546200038990620006df565b90600052602060002090601f016020900481019282620003ad5760008555620003f9565b82601f10620003c857805160ff1916838001178555620003f9565b82800160010185558215620003f9579182015b82811115620003f8578251825591602001919060010190620003db565b5b5090506200040891906200040c565b5090565b5b80821115620004275760008160009055506001016200040d565b5090565b6000604051905090565b600080fd5b600080fd5b600080fd5b600080fd5b6000601f19601f8301169050919050565b7f4e487b7100000000000000000000000000000000000000000000000000000000600052604160045260246000fd5b620004948262000449565b810181811067ffffffffffffffff82111715620004b657620004b56200045a565b5b80604052505050565b6000620004cb6200042b565b9050620004d9828262000489565b919050565b600067ffffffffffffffff821115620004fc57620004fb6200045a565b5b620005078262000449565b9050602081019050919050565b60005b838110156200053457808201518184015260208101905062000517565b8381111562000544576000848401525b50505050565b6000620005616200055b84620004de565b620004bf565b90508281526020810184848401111562000580576200057f62000444565b5b6200058d84828562000514565b509392505050565b600082601f830112620005ad57620005ac6200043f565b5b8151620005bf8482602086016200054a565b91505092915050565b600080600060608486031215620005e457620005e362000435565b5b600084015167ffffffffffffffff8111156200060557620006046200043a565b5b620006138682870162000595565b935050602084015167ffffffffffffffff8111156200063757620006366200043a565b5b620006458682870162000595565b925050604084015167ffffffffffffffff8111156200066957620006686200043a565b5b620006778682870162000595565b9150509250925092565b7f4e487b7100000000000000000000000000000000000000000000000000000000600052602160045260246000fd5b7f4e487b7100000000000000000000000000000000000000000000000000000000600052602260045260246000fd5b60006002820490506001821680620006f857607f821691505b602082108114156200070f576200070e620006b0565b5b50919050565b610e0080620007256000396000f3fe608060405234801561001057600080fd5b50600436106100575760003560e01c8063048cf8c01461005c5780630616dbce1461008c57806315dae03e146100bc57806324713d4d146100da578063feb97a42146100f8575b600080fd5b61007660048036038101906100719190610972565b610128565b6040516100839190610a5c565b60405180910390f35b6100a660048036038101906100a19190610a77565b6103e8565b6040516100b39190610acf565b60405180910390f35b6100c4610534565b6040516100d19190610b61565b60405180910390f35b6100e261058b565b6040516100ef9190610a5c565b60405180910390f35b610112600480360381019061010d9190610a77565b6105e2565b60405161011f9190610a5c565b60405180910390f35b600080600381111561013d5761013c610aea565b5b600160003373ffffffffffffffffffffffffffffffffffffffff1673ffffffffffffffffffffffffffffffffffffffff16815260200190815260200160002060030160009054906101000a900460ff16600381111561019f5761019e610aea565b5b14156101ae57600090506103df565b60018060008873ffffffffffffffffffffffffffffffffffffffff1673ffffffffffffffffffffffffffffffffffffffff16815260200190815260200160002060030160016101000a81548160ff02191690831515021790555084600160008873ffffffffffffffffffffffffffffffffffffffff1673ffffffffffffffffffffffffffffffffffffffff168152602001908152602001600020600001908051906020019061025e9291906106f2565b5083600160008873ffffffffffffffffffffffffffffffffffffffff1673ffffffffffffffffffffffffffffffffffffffff16815260200190815260200160002060010190805190602001906102b59291906106f2565b5082600160008873ffffffffffffffffffffffffffffffffffffffff1673ffffffffffffffffffffffffffffffffffffffff168152602001908152602001600020600201908051906020019061030c9291906106f2565b5081600160008873ffffffffffffffffffffffffffffffffffffffff1673ffffffffffffffffffffffffffffffffffffffff16815260200190815260200160002060030160006101000a81548160ff0219169083600381111561037257610371610aea565b5b02179055506002869080600181540180825580915050600190039060005260206000200160009091909190916101000a81548173ffffffffffffffffffffffffffffffffffffffff021916908373ffffffffffffffffffffffffffffffffffffffff160217905550600190505b95945050505050565b600080600090505b60028054905081101561052a57600160006002838154811061041557610414610b7c565b5b9060005260206000200160009054906101000a900473ffffffffffffffffffffffffffffffffffffffff1673ffffffffffffffffffffffffffffffffffffffff1673ffffffffffffffffffffffffffffffffffffffff16815260200190815260200160002060020160405160200161048d9190610cab565b60405160208183030381529060405280519060200120836040516020016104b49190610d31565b60405160208183030381529060405280519060200120141561051757600281815481106104e4576104e3610b7c565b5b9060005260206000200160009054906101000a900473ffffffffffffffffffffffffffffffffffffffff1691505061052f565b808061052290610d81565b9150506103f0565b503390505b919050565b6000600160003373ffffffffffffffffffffffffffffffffffffffff1673ffffffffffffffffffffffffffffffffffffffff16815260200190815260200160002060030160009054906101000a900460ff16905090565b6000600160003373ffffffffffffffffffffffffffffffffffffffff1673ffffffffffffffffffffffffffffffffffffffff16815260200190815260200160002060030160019054906101000a900460ff16905090565b600080600090505b6002805490508110156106e757600160006002838154811061060f5761060e610b7c565b5b9060005260206000200160009054906101000a900473ffffffffffffffffffffffffffffffffffffffff1673ffffffffffffffffffffffffffffffffffffffff1673ffffffffffffffffffffffffffffffffffffffff1681526020019081526020016000206002016040516020016106879190610cab565b60405160208183030381529060405280519060200120836040516020016106ae9190610d31565b6040516020818303038152906040528051906020012014156106d45760019150506106ed565b80806106df90610d81565b9150506105ea565b50600090505b919050565b8280546106fe90610bda565b90600052602060002090601f0160209004810192826107205760008555610767565b82601f1061073957805160ff1916838001178555610767565b82800160010185558215610767579182015b8281111561076657825182559160200191906001019061074b565b5b5090506107749190610778565b5090565b5b80821115610791576000816000905550600101610779565b5090565b6000604051905090565b600080fd5b600080fd5b600073ffffffffffffffffffffffffffffffffffffffff82169050919050565b60006107d4826107a9565b9050919050565b6107e4816107c9565b81146107ef57600080fd5b50565b600081359050610801816107db565b92915050565b600080fd5b600080fd5b6000601f19601f8301169050919050565b7f4e487b7100000000000000000000000000000000000000000000000000000000600052604160045260246000fd5b61085a82610811565b810181811067ffffffffffffffff8211171561087957610878610822565b5b80604052505050565b600061088c610795565b90506108988282610851565b919050565b600067ffffffffffffffff8211156108b8576108b7610822565b5b6108c182610811565b9050602081019050919050565b82818337600083830152505050565b60006108f06108eb8461089d565b610882565b90508281526020810184848401111561090c5761090b61080c565b5b6109178482856108ce565b509392505050565b600082601f83011261093457610933610807565b5b81356109448482602086016108dd565b91505092915050565b6004811061095a57600080fd5b50565b60008135905061096c8161094d565b92915050565b600080600080600060a0868803121561098e5761098d61079f565b5b600061099c888289016107f2565b955050602086013567ffffffffffffffff8111156109bd576109bc6107a4565b5b6109c98882890161091f565b945050604086013567ffffffffffffffff8111156109ea576109e96107a4565b5b6109f68882890161091f565b935050606086013567ffffffffffffffff811115610a1757610a166107a4565b5b610a238882890161091f565b9250506080610a348882890161095d565b9150509295509295909350565b60008115159050919050565b610a5681610a41565b82525050565b6000602082019050610a716000830184610a4d565b92915050565b600060208284031215610a8d57610a8c61079f565b5b600082013567ffffffffffffffff811115610aab57610aaa6107a4565b5b610ab78482850161091f565b91505092915050565b610ac9816107c9565b82525050565b6000602082019050610ae46000830184610ac0565b92915050565b7f4e487b7100000000000000000000000000000000000000000000000000000000600052602160045260246000fd5b60048110610b2a57610b29610aea565b5b50565b6000819050610b3b82610b19565b919050565b6000610b4b82610b2d565b9050919050565b610b5b81610b40565b82525050565b6000602082019050610b766000830184610b52565b92915050565b7f4e487b7100000000000000000000000000000000000000000000000000000000600052603260045260246000fd5b7f4e487b7100000000000000000000000000000000000000000000000000000000600052602260045260246000fd5b60006002820490506001821680610bf257607f821691505b60208210811415610c0657610c05610bab565b5b50919050565b600081905092915050565b60008190508160005260206000209050919050565b60008154610c3981610bda565b610c438186610c0c565b94506001821660008114610c5e5760018114610c6f57610ca2565b60ff19831686528186019350610ca2565b610c7885610c17565b60005b83811015610c9a57815481890152600182019150602081019050610c7b565b838801955050505b50505092915050565b6000610cb78284610c2c565b915081905092915050565b600081519050919050565b60005b83811015610ceb578082015181840152602081019050610cd0565b83811115610cfa576000848401525b50505050565b6000610d0b82610cc2565b610d158185610c0c565b9350610d25818560208601610ccd565b80840191505092915050565b6000610d3d8284610d00565b915081905092915050565b7f4e487b7100000000000000000000000000000000000000000000000000000000600052601160045260246000fd5b6000819050919050565b6000610d8c82610d77565b91507fffffffffffffffffffffffffffffffffffffffffffffffffffffffffffffffff821415610dbf57610dbe610d48565b5b60018201905091905056fea2646970667358221220c4bf0636a0f2761b4c542794d9b732de972535f31b62e9c4562385de5d745efa64736f6c63430008090033",
  "linkReferences": {},
  "deployedLinkReferences": {}
}