{
  "_format": "hh-sol-artifact-1",
  "contractName": "Token",
  "sourceName": "contracts/Token.sol",
  "abi": [
    {
      "inputs": [
        {
          "internalType": "address",
          "name": "contractAddress",
          "type": "address"
        }
      ],
      "stateMutability": "nonpayable",
      "type": "constructor"
    },
    {
      "anonymous": false,
      "inputs": [
        {
          "indexed": true,
          "internalType": "address",
          "name": "owner",
          "type": "address"
        },
        {
          "indexed": true,
          "internalType": "address",
          "name": "spender",
          "type": "address"
        },
        {
          "indexed": false,
          "internalType": "uint256",
          "name": "value",
          "type": "uint256"
        }
      ],
      "name": "Approval",
      "type": "event"
    },
    {
      "anonymous": false,
      "inputs": [
        {
          "indexed": true,
          "internalType": "address",
          "name": "from",
          "type": "address"
        },
        {
          "indexed": true,
          "internalType": "address",
          "name": "to",
          "type": "address"
        },
        {
          "indexed": false,
          "internalType": "uint256",
          "name": "value",
          "type": "uint256"
        }
      ],
      "name": "Transfer",
      "type": "event"
    },
    {
      "inputs": [
        {
          "internalType": "address",
          "name": "owner",
          "type": "address"
        },
        {
          "internalType": "address",
          "name": "spender",
          "type": "address"
        }
      ],
      "name": "allowance",
      "outputs": [
        {
          "internalType": "uint256",
          "name": "",
          "type": "uint256"
        }
      ],
      "stateMutability": "view",
      "type": "function"
    },
    {
      "inputs": [
        {
          "internalType": "address",
          "name": "spender",
          "type": "address"
        },
        {
          "internalType": "uint256",
          "name": "amount",
          "type": "uint256"
        }
      ],
      "name": "approve",
      "outputs": [
        {
          "internalType": "bool",
          "name": "",
          "type": "bool"
        }
      ],
      "stateMutability": "nonpayable",
      "type": "function"
    },
    {
      "inputs": [
        {
          "internalType": "address",
          "name": "account",
          "type": "address"
        }
      ],
      "name": "balanceOf",
      "outputs": [
        {
          "internalType": "uint256",
          "name": "",
          "type": "uint256"
        }
      ],
      "stateMutability": "view",
      "type": "function"
    },
    {
      "inputs": [
        {
          "internalType": "uint256",
          "name": "amount",
          "type": "uint256"
        }
      ],
      "name": "burn",
      "outputs": [],
      "stateMutability": "nonpayable",
      "type": "function"
    },
    {
      "inputs": [
        {
          "internalType": "address",
          "name": "account",
          "type": "address"
        },
        {
          "internalType": "uint256",
          "name": "amount",
          "type": "uint256"
        }
      ],
      "name": "burnFrom",
      "outputs": [],
      "stateMutability": "nonpayable",
      "type": "function"
    },
    {
      "inputs": [],
      "name": "cap",
      "outputs": [
        {
          "internalType": "uint256",
          "name": "",
          "type": "uint256"
        }
      ],
      "stateMutability": "view",
      "type": "function"
    },
    {
      "inputs": [],
      "name": "decimals",
      "outputs": [
        {
          "internalType": "uint8",
          "name": "",
          "type": "uint8"
        }
      ],
      "stateMutability": "view",
      "type": "function"
    },
    {
      "inputs": [
        {
          "internalType": "address",
          "name": "spender",
          "type": "address"
        },
        {
          "internalType": "uint256",
          "name": "subtractedValue",
          "type": "uint256"
        }
      ],
      "name": "decreaseAllowance",
      "outputs": [
        {
          "internalType": "bool",
          "name": "",
          "type": "bool"
        }
      ],
      "stateMutability": "nonpayable",
      "type": "function"
    },
    {
      "inputs": [
        {
          "internalType": "address",
          "name": "spender",
          "type": "address"
        },
        {
          "internalType": "uint256",
          "name": "addedValue",
          "type": "uint256"
        }
      ],
      "name": "increaseAllowance",
      "outputs": [
        {
          "internalType": "bool",
          "name": "",
          "type": "bool"
        }
      ],
      "stateMutability": "nonpayable",
      "type": "function"
    },
    {
      "inputs": [],
      "name": "maxSupply",
      "outputs": [
        {
          "internalType": "uint256",
          "name": "",
          "type": "uint256"
        }
      ],
      "stateMutability": "view",
      "type": "function"
    },
    {
      "inputs": [],
      "name": "name",
      "outputs": [
        {
          "internalType": "string",
          "name": "",
          "type": "string"
        }
      ],
      "stateMutability": "view",
      "type": "function"
    },
    {
      "inputs": [],
      "name": "owner",
      "outputs": [
        {
          "internalType": "address",
          "name": "",
          "type": "address"
        }
      ],
      "stateMutability": "view",
      "type": "function"
    },
    {
      "inputs": [],
      "name": "symbol",
      "outputs": [
        {
          "internalType": "string",
          "name": "",
          "type": "string"
        }
      ],
      "stateMutability": "view",
      "type": "function"
    },
    {
      "inputs": [],
      "name": "totalSupply",
      "outputs": [
        {
          "internalType": "uint256",
          "name": "",
          "type": "uint256"
        }
      ],
      "stateMutability": "view",
      "type": "function"
    },
    {
      "inputs": [
        {
          "internalType": "address",
          "name": "to",
          "type": "address"
        },
        {
          "internalType": "uint256",
          "name": "amount",
          "type": "uint256"
        }
      ],
      "name": "transfer",
      "outputs": [
        {
          "internalType": "bool",
          "name": "",
          "type": "bool"
        }
      ],
      "stateMutability": "nonpayable",
      "type": "function"
    },
    {
      "inputs": [
        {
          "internalType": "address",
          "name": "from",
          "type": "address"
        },
        {
          "internalType": "address",
          "name": "to",
          "type": "address"
        },
        {
          "internalType": "uint256",
          "name": "amount",
          "type": "uint256"
        }
      ],
      "name": "transferFrom",
      "outputs": [
        {
          "internalType": "bool",
          "name": "",
          "type": "bool"
        }
      ],
      "stateMutability": "nonpayable",
      "type": "function"
    }
  ],
  "bytecode": "0x60a0604052620f42406005553480156200001857600080fd5b50604051620024543803806200245483398181016040528101906200003e9190620005b1565b6200004e620001e060201b60201c565b600a6200005c91906200077d565b6005546200006b9190620007ce565b6040518060400160405280601781526020017f5472616e736974696f6e20546563686e6f6c6f676965730000000000000000008152506040518060400160405280600681526020017f24545450534300000000000000000000000000000000000000000000000000008152508160039080519060200190620000ef92919062000497565b5080600490805190602001906200010892919062000497565b5050506000811162000151576040517f08c379a0000000000000000000000000000000000000000000000000000000008152600401620001489062000890565b60405180910390fd5b80608081815250505033600660006101000a81548173ffffffffffffffffffffffffffffffffffffffff021916908373ffffffffffffffffffffffffffffffffffffffff160217905550620001d981620001b0620001e060201b60201c565b600a620001be91906200077d565b600554620001cd9190620007ce565b620001e960201b60201c565b5062000a86565b60006012905090565b620001f96200027a60201b60201c565b816200020f6200028460201b620004141760201c565b6200021b9190620008b2565b11156200025f576040517f08c379a000000000000000000000000000000000000000000000000000000000815260040162000256906200095f565b60405180910390fd5b6200027682826200028e60201b620007101760201c565b5050565b6000608051905090565b6000600254905090565b6200029e6200027a60201b60201c565b81620002b46200028460201b620004141760201c565b620002c09190620008b2565b111562000304576040517f08c379a0000000000000000000000000000000000000000000000000000000008152600401620002fb906200095f565b60405180910390fd5b6200031b82826200031f60201b6200077a1760201c565b5050565b600073ffffffffffffffffffffffffffffffffffffffff168273ffffffffffffffffffffffffffffffffffffffff16141562000392576040517f08c379a00000000000000000000000000000000000000000000000000000000081526004016200038990620009d1565b60405180910390fd5b620003a6600083836200048d60201b60201c565b8060026000828254620003ba9190620008b2565b92505081905550806000808473ffffffffffffffffffffffffffffffffffffffff1673ffffffffffffffffffffffffffffffffffffffff168152602001908152602001600020600082825401925050819055508173ffffffffffffffffffffffffffffffffffffffff16600073ffffffffffffffffffffffffffffffffffffffff167fddf252ad1be2c89b69c2b068fc378daa952ba7f163c4a11628f55a4df523b3ef836040516200046d919062000a04565b60405180910390a362000489600083836200049260201b60201c565b5050565b505050565b505050565b828054620004a59062000a50565b90600052602060002090601f016020900481019282620004c9576000855562000515565b82601f10620004e457805160ff191683800117855562000515565b8280016001018555821562000515579182015b8281111562000514578251825591602001919060010190620004f7565b5b50905062000524919062000528565b5090565b5b808211156200054357600081600090555060010162000529565b5090565b600080fd5b600073ffffffffffffffffffffffffffffffffffffffff82169050919050565b600062000579826200054c565b9050919050565b6200058b816200056c565b81146200059757600080fd5b50565b600081519050620005ab8162000580565b92915050565b600060208284031215620005ca57620005c962000547565b5b6000620005da848285016200059a565b91505092915050565b7f4e487b7100000000000000000000000000000000000000000000000000000000600052601160045260246000fd5b60008160011c9050919050565b6000808291508390505b60018511156200067157808604811115620006495762000648620005e3565b5b6001851615620006595780820291505b8081029050620006698562000612565b945062000629565b94509492505050565b6000826200068c57600190506200075f565b816200069c57600090506200075f565b8160018114620006b55760028114620006c057620006f6565b60019150506200075f565b60ff841115620006d557620006d4620005e3565b5b8360020a915084821115620006ef57620006ee620005e3565b5b506200075f565b5060208310610133831016604e8410600b8410161715620007305782820a9050838111156200072a5762000729620005e3565b5b6200075f565b6200073f84848460016200061f565b92509050818404811115620007595762000758620005e3565b5b81810290505b9392505050565b6000819050919050565b600060ff82169050919050565b60006200078a8262000766565b9150620007978362000770565b9250620007c67fffffffffffffffffffffffffffffffffffffffffffffffffffffffffffffffff84846200067a565b905092915050565b6000620007db8262000766565b9150620007e88362000766565b9250817fffffffffffffffffffffffffffffffffffffffffffffffffffffffffffffffff0483118215151615620008245762000823620005e3565b5b828202905092915050565b600082825260208201905092915050565b7f45524332304361707065643a2063617020697320300000000000000000000000600082015250565b6000620008786015836200082f565b9150620008858262000840565b602082019050919050565b60006020820190508181036000830152620008ab8162000869565b9050919050565b6000620008bf8262000766565b9150620008cc8362000766565b9250827fffffffffffffffffffffffffffffffffffffffffffffffffffffffffffffffff03821115620009045762000903620005e3565b5b828201905092915050565b7f45524332304361707065643a2063617020657863656564656400000000000000600082015250565b6000620009476019836200082f565b915062000954826200090f565b602082019050919050565b600060208201905081810360008301526200097a8162000938565b9050919050565b7f45524332303a206d696e7420746f20746865207a65726f206164647265737300600082015250565b6000620009b9601f836200082f565b9150620009c68262000981565b602082019050919050565b60006020820190508181036000830152620009ec81620009aa565b9050919050565b620009fe8162000766565b82525050565b600060208201905062000a1b6000830184620009f3565b92915050565b7f4e487b7100000000000000000000000000000000000000000000000000000000600052602260045260246000fd5b6000600282049050600182168062000a6957607f821691505b6020821081141562000a805762000a7f62000a21565b5b50919050565b6080516119b262000aa2600039600061045a01526119b26000f3fe608060405234801561001057600080fd5b50600436106101005760003560e01c806370a0823111610097578063a457c2d711610066578063a457c2d7146102b1578063a9059cbb146102e1578063d5abeb0114610311578063dd62ed3e1461032f57610100565b806370a082311461022957806379cc6790146102595780638da5cb5b1461027557806395d89b411461029357610100565b8063313ce567116100d3578063313ce567146101a1578063355274ea146101bf57806339509351146101dd57806342966c681461020d57610100565b806306fdde0314610105578063095ea7b31461012357806318160ddd1461015357806323b872dd14610171575b600080fd5b61010d61035f565b60405161011a9190611019565b60405180910390f35b61013d600480360381019061013891906110d4565b6103f1565b60405161014a919061112f565b60405180910390f35b61015b610414565b6040516101689190611159565b60405180910390f35b61018b60048036038101906101869190611174565b61041e565b604051610198919061112f565b60405180910390f35b6101a961044d565b6040516101b691906111e3565b60405180910390f35b6101c7610456565b6040516101d49190611159565b60405180910390f35b6101f760048036038101906101f291906110d4565b61047e565b604051610204919061112f565b60405180910390f35b610227600480360381019061022291906111fe565b6104b5565b005b610243600480360381019061023e919061122b565b6104c9565b6040516102509190611159565b60405180910390f35b610273600480360381019061026e91906110d4565b610511565b005b61027d610531565b60405161028a9190611267565b60405180910390f35b61029b610557565b6040516102a89190611019565b60405180910390f35b6102cb60048036038101906102c691906110d4565b6105e9565b6040516102d8919061112f565b60405180910390f35b6102fb60048036038101906102f691906110d4565b610660565b604051610308919061112f565b60405180910390f35b610319610683565b6040516103269190611159565b60405180910390f35b61034960048036038101906103449190611282565b610689565b6040516103569190611159565b60405180910390f35b60606003805461036e906112f1565b80601f016020809104026020016040519081016040528092919081815260200182805461039a906112f1565b80156103e75780601f106103bc576101008083540402835291602001916103e7565b820191906000526020600020905b8154815290600101906020018083116103ca57829003601f168201915b5050505050905090565b6000806103fc6108d1565b90506104098185856108d9565b600191505092915050565b6000600254905090565b6000806104296108d1565b9050610436858285610aa4565b610441858585610b30565b60019150509392505050565b60006012905090565b60007f0000000000000000000000000000000000000000000000000000000000000000905090565b6000806104896108d1565b90506104aa81858561049b8589610689565b6104a59190611352565b6108d9565b600191505092915050565b6104c66104c06108d1565b82610da8565b50565b60008060008373ffffffffffffffffffffffffffffffffffffffff1673ffffffffffffffffffffffffffffffffffffffff168152602001908152602001600020549050919050565b6105238261051d6108d1565b83610aa4565b61052d8282610da8565b5050565b600660009054906101000a900473ffffffffffffffffffffffffffffffffffffffff1681565b606060048054610566906112f1565b80601f0160208091040260200160405190810160405280929190818152602001828054610592906112f1565b80156105df5780601f106105b4576101008083540402835291602001916105df565b820191906000526020600020905b8154815290600101906020018083116105c257829003601f168201915b5050505050905090565b6000806105f46108d1565b905060006106028286610689565b905083811015610647576040517f08c379a000000000000000000000000000000000000000000000000000000000815260040161063e9061141a565b60405180910390fd5b61065482868684036108d9565b60019250505092915050565b60008061066b6108d1565b9050610678818585610b30565b600191505092915050565b60055481565b6000600160008473ffffffffffffffffffffffffffffffffffffffff1673ffffffffffffffffffffffffffffffffffffffff16815260200190815260200160002060008373ffffffffffffffffffffffffffffffffffffffff1673ffffffffffffffffffffffffffffffffffffffff16815260200190815260200160002054905092915050565b610718610456565b81610721610414565b61072b9190611352565b111561076c576040517f08c379a000000000000000000000000000000000000000000000000000000000815260040161076390611486565b60405180910390fd5b610776828261077a565b5050565b600073ffffffffffffffffffffffffffffffffffffffff168273ffffffffffffffffffffffffffffffffffffffff1614156107ea576040517f08c379a00000000000000000000000000000000000000000000000000000000081526004016107e1906114f2565b60405180910390fd5b6107f660008383610f76565b80600260008282546108089190611352565b92505081905550806000808473ffffffffffffffffffffffffffffffffffffffff1673ffffffffffffffffffffffffffffffffffffffff168152602001908152602001600020600082825401925050819055508173ffffffffffffffffffffffffffffffffffffffff16600073ffffffffffffffffffffffffffffffffffffffff167fddf252ad1be2c89b69c2b068fc378daa952ba7f163c4a11628f55a4df523b3ef836040516108b99190611159565b60405180910390a36108cd60008383610f7b565b5050565b600033905090565b600073ffffffffffffffffffffffffffffffffffffffff168373ffffffffffffffffffffffffffffffffffffffff161415610949576040517f08c379a000000000000000000000000000000000000000000000000000000000815260040161094090611584565b60405180910390fd5b600073ffffffffffffffffffffffffffffffffffffffff168273ffffffffffffffffffffffffffffffffffffffff1614156109b9576040517f08c379a00000000000000000000000000000000000000000000000000000000081526004016109b090611616565b60405180910390fd5b80600160008573ffffffffffffffffffffffffffffffffffffffff1673ffffffffffffffffffffffffffffffffffffffff16815260200190815260200160002060008473ffffffffffffffffffffffffffffffffffffffff1673ffffffffffffffffffffffffffffffffffffffff168152602001908152602001600020819055508173ffffffffffffffffffffffffffffffffffffffff168373ffffffffffffffffffffffffffffffffffffffff167f8c5be1e5ebec7d5bd14f71427d1e84f3dd0314c0f7b2291e5b200ac8c7c3b92583604051610a979190611159565b60405180910390a3505050565b6000610ab08484610689565b90507fffffffffffffffffffffffffffffffffffffffffffffffffffffffffffffffff8114610b2a5781811015610b1c576040517f08c379a0000000000000000000000000000000000000000000000000000000008152600401610b1390611682565b60405180910390fd5b610b2984848484036108d9565b5b50505050565b600073ffffffffffffffffffffffffffffffffffffffff168373ffffffffffffffffffffffffffffffffffffffff161415610ba0576040517f08c379a0000000000000000000000000000000000000000000000000000000008152600401610b9790611714565b60405180910390fd5b600073ffffffffffffffffffffffffffffffffffffffff168273ffffffffffffffffffffffffffffffffffffffff161415610c10576040517f08c379a0000000000000000000000000000000000000000000000000000000008152600401610c07906117a6565b60405180910390fd5b610c1b838383610f76565b60008060008573ffffffffffffffffffffffffffffffffffffffff1673ffffffffffffffffffffffffffffffffffffffff16815260200190815260200160002054905081811015610ca1576040517f08c379a0000000000000000000000000000000000000000000000000000000008152600401610c9890611838565b60405180910390fd5b8181036000808673ffffffffffffffffffffffffffffffffffffffff1673ffffffffffffffffffffffffffffffffffffffff16815260200190815260200160002081905550816000808573ffffffffffffffffffffffffffffffffffffffff1673ffffffffffffffffffffffffffffffffffffffff168152602001908152602001600020600082825401925050819055508273ffffffffffffffffffffffffffffffffffffffff168473ffffffffffffffffffffffffffffffffffffffff167fddf252ad1be2c89b69c2b068fc378daa952ba7f163c4a11628f55a4df523b3ef84604051610d8f9190611159565b60405180910390a3610da2848484610f7b565b50505050565b600073ffffffffffffffffffffffffffffffffffffffff168273ffffffffffffffffffffffffffffffffffffffff161415610e18576040517f08c379a0000000000000000000000000000000000000000000000000000000008152600401610e0f906118ca565b60405180910390fd5b610e2482600083610f76565b60008060008473ffffffffffffffffffffffffffffffffffffffff1673ffffffffffffffffffffffffffffffffffffffff16815260200190815260200160002054905081811015610eaa576040517f08c379a0000000000000000000000000000000000000000000000000000000008152600401610ea19061195c565b60405180910390fd5b8181036000808573ffffffffffffffffffffffffffffffffffffffff1673ffffffffffffffffffffffffffffffffffffffff1681526020019081526020016000208190555081600260008282540392505081905550600073ffffffffffffffffffffffffffffffffffffffff168373ffffffffffffffffffffffffffffffffffffffff167fddf252ad1be2c89b69c2b068fc378daa952ba7f163c4a11628f55a4df523b3ef84604051610f5d9190611159565b60405180910390a3610f7183600084610f7b565b505050565b505050565b505050565b600081519050919050565b600082825260208201905092915050565b60005b83811015610fba578082015181840152602081019050610f9f565b83811115610fc9576000848401525b50505050565b6000601f19601f8301169050919050565b6000610feb82610f80565b610ff58185610f8b565b9350611005818560208601610f9c565b61100e81610fcf565b840191505092915050565b600060208201905081810360008301526110338184610fe0565b905092915050565b600080fd5b600073ffffffffffffffffffffffffffffffffffffffff82169050919050565b600061106b82611040565b9050919050565b61107b81611060565b811461108657600080fd5b50565b60008135905061109881611072565b92915050565b6000819050919050565b6110b18161109e565b81146110bc57600080fd5b50565b6000813590506110ce816110a8565b92915050565b600080604083850312156110eb576110ea61103b565b5b60006110f985828601611089565b925050602061110a858286016110bf565b9150509250929050565b60008115159050919050565b61112981611114565b82525050565b60006020820190506111446000830184611120565b92915050565b6111538161109e565b82525050565b600060208201905061116e600083018461114a565b92915050565b60008060006060848603121561118d5761118c61103b565b5b600061119b86828701611089565b93505060206111ac86828701611089565b92505060406111bd868287016110bf565b9150509250925092565b600060ff82169050919050565b6111dd816111c7565b82525050565b60006020820190506111f860008301846111d4565b92915050565b6000602082840312156112145761121361103b565b5b6000611222848285016110bf565b91505092915050565b6000602082840312156112415761124061103b565b5b600061124f84828501611089565b91505092915050565b61126181611060565b82525050565b600060208201905061127c6000830184611258565b92915050565b600080604083850312156112995761129861103b565b5b60006112a785828601611089565b92505060206112b885828601611089565b9150509250929050565b7f4e487b7100000000000000000000000000000000000000000000000000000000600052602260045260246000fd5b6000600282049050600182168061130957607f821691505b6020821081141561131d5761131c6112c2565b5b50919050565b7f4e487b7100000000000000000000000000000000000000000000000000000000600052601160045260246000fd5b600061135d8261109e565b91506113688361109e565b9250827fffffffffffffffffffffffffffffffffffffffffffffffffffffffffffffffff0382111561139d5761139c611323565b5b828201905092915050565b7f45524332303a2064656372656173656420616c6c6f77616e63652062656c6f7760008201527f207a65726f000000000000000000000000000000000000000000000000000000602082015250565b6000611404602583610f8b565b915061140f826113a8565b604082019050919050565b60006020820190508181036000830152611433816113f7565b9050919050565b7f45524332304361707065643a2063617020657863656564656400000000000000600082015250565b6000611470601983610f8b565b915061147b8261143a565b602082019050919050565b6000602082019050818103600083015261149f81611463565b9050919050565b7f45524332303a206d696e7420746f20746865207a65726f206164647265737300600082015250565b60006114dc601f83610f8b565b91506114e7826114a6565b602082019050919050565b6000602082019050818103600083015261150b816114cf565b9050919050565b7f45524332303a20617070726f76652066726f6d20746865207a65726f2061646460008201527f7265737300000000000000000000000000000000000000000000000000000000602082015250565b600061156e602483610f8b565b915061157982611512565b604082019050919050565b6000602082019050818103600083015261159d81611561565b9050919050565b7f45524332303a20617070726f766520746f20746865207a65726f20616464726560008201527f7373000000000000000000000000000000000000000000000000000000000000602082015250565b6000611600602283610f8b565b915061160b826115a4565b604082019050919050565b6000602082019050818103600083015261162f816115f3565b9050919050565b7f45524332303a20696e73756666696369656e7420616c6c6f77616e6365000000600082015250565b600061166c601d83610f8b565b915061167782611636565b602082019050919050565b6000602082019050818103600083015261169b8161165f565b9050919050565b7f45524332303a207472616e736665722066726f6d20746865207a65726f20616460008201527f6472657373000000000000000000000000000000000000000000000000000000602082015250565b60006116fe602583610f8b565b9150611709826116a2565b604082019050919050565b6000602082019050818103600083015261172d816116f1565b9050919050565b7f45524332303a207472616e7366657220746f20746865207a65726f206164647260008201527f6573730000000000000000000000000000000000000000000000000000000000602082015250565b6000611790602383610f8b565b915061179b82611734565b604082019050919050565b600060208201905081810360008301526117bf81611783565b9050919050565b7f45524332303a207472616e7366657220616d6f756e742065786365656473206260008201527f616c616e63650000000000000000000000000000000000000000000000000000602082015250565b6000611822602683610f8b565b915061182d826117c6565b604082019050919050565b6000602082019050818103600083015261185181611815565b9050919050565b7f45524332303a206275726e2066726f6d20746865207a65726f2061646472657360008201527f7300000000000000000000000000000000000000000000000000000000000000602082015250565b60006118b4602183610f8b565b91506118bf82611858565b604082019050919050565b600060208201905081810360008301526118e3816118a7565b9050919050565b7f45524332303a206275726e20616d6f756e7420657863656564732062616c616e60008201527f6365000000000000000000000000000000000000000000000000000000000000602082015250565b6000611946602283610f8b565b9150611951826118ea565b604082019050919050565b6000602082019050818103600083015261197581611939565b905091905056fea264697066735822122015edaaf4001c9afd79313d7b291ff29b4bf416351ccb4e078f0497bc19f49b7664736f6c63430008090033",
  "linkReferences": {},
  "deployedLinkReferences": {}
}